{
  "address": "0x70A03Fee9d23d2E122BA260eEEE71c56b3485826",
  "abi": [
    {
      "inputs": [],
      "stateMutability": "nonpayable",
      "type": "constructor"
    },
    {
      "inputs": [],
      "name": "AccessControlBadConfirmation",
      "type": "error"
    },
    {
      "inputs": [
        {
          "internalType": "address",
          "name": "account",
          "type": "address"
        },
        {
          "internalType": "bytes32",
          "name": "neededRole",
          "type": "bytes32"
        }
      ],
      "name": "AccessControlUnauthorizedAccount",
      "type": "error"
    },
    {
      "inputs": [
        {
          "internalType": "address",
          "name": "target",
          "type": "address"
        }
      ],
      "name": "AddressEmptyCode",
      "type": "error"
    },
    {
      "inputs": [
        {
          "internalType": "address",
          "name": "account",
          "type": "address"
        }
      ],
      "name": "AddressInsufficientBalance",
      "type": "error"
    },
    {
      "inputs": [
        {
          "internalType": "address",
          "name": "implementation",
          "type": "address"
        }
      ],
      "name": "ERC1967InvalidImplementation",
      "type": "error"
    },
    {
      "inputs": [],
      "name": "ERC1967NonPayable",
      "type": "error"
    },
    {
      "inputs": [],
      "name": "FailedInnerCall",
      "type": "error"
    },
    {
      "inputs": [],
      "name": "InsufficientCost",
      "type": "error"
    },
    {
      "inputs": [],
      "name": "InvalidInitialization",
      "type": "error"
    },
    {
      "inputs": [],
      "name": "LengthMismatch",
      "type": "error"
    },
    {
      "inputs": [],
      "name": "NotInitializing",
      "type": "error"
    },
    {
      "inputs": [],
      "name": "NotManager",
      "type": "error"
    },
    {
      "inputs": [
        {
          "internalType": "address",
          "name": "token",
          "type": "address"
        }
      ],
      "name": "SafeERC20FailedOperation",
      "type": "error"
    },
    {
      "inputs": [],
      "name": "UUPSUnauthorizedCallContext",
      "type": "error"
    },
    {
      "inputs": [
        {
          "internalType": "bytes32",
          "name": "slot",
          "type": "bytes32"
        }
      ],
      "name": "UUPSUnsupportedProxiableUUID",
      "type": "error"
    },
    {
      "anonymous": false,
      "inputs": [
        {
          "indexed": true,
          "internalType": "address",
          "name": "token",
          "type": "address"
        },
        {
          "indexed": false,
          "internalType": "address[]",
          "name": "accounts",
          "type": "address[]"
        },
        {
          "indexed": false,
          "internalType": "uint256[]",
          "name": "amounts",
          "type": "uint256[]"
        },
        {
          "indexed": false,
          "internalType": "uint256",
          "name": "typeId",
          "type": "uint256"
        }
      ],
      "name": "BatchSend",
      "type": "event"
    },
    {
      "anonymous": false,
      "inputs": [
        {
          "indexed": false,
          "internalType": "contract IERC20",
          "name": "_token",
          "type": "address"
        },
        {
          "indexed": false,
          "internalType": "address",
          "name": "_recipient",
          "type": "address"
        },
        {
          "indexed": false,
          "internalType": "uint256",
          "name": "_value",
          "type": "uint256"
        }
      ],
      "name": "ERC20TokenWithdrawn",
      "type": "event"
    },
    {
      "anonymous": false,
      "inputs": [
        {
          "indexed": false,
          "internalType": "uint64",
          "name": "version",
          "type": "uint64"
        }
      ],
      "name": "Initialized",
      "type": "event"
    },
    {
      "anonymous": false,
      "inputs": [
        {
          "indexed": true,
          "internalType": "bytes32",
          "name": "role",
          "type": "bytes32"
        },
        {
          "indexed": true,
          "internalType": "bytes32",
          "name": "previousAdminRole",
          "type": "bytes32"
        },
        {
          "indexed": true,
          "internalType": "bytes32",
          "name": "newAdminRole",
          "type": "bytes32"
        }
      ],
      "name": "RoleAdminChanged",
      "type": "event"
    },
    {
      "anonymous": false,
      "inputs": [
        {
          "indexed": true,
          "internalType": "bytes32",
          "name": "role",
          "type": "bytes32"
        },
        {
          "indexed": true,
          "internalType": "address",
          "name": "account",
          "type": "address"
        },
        {
          "indexed": true,
          "internalType": "address",
          "name": "sender",
          "type": "address"
        }
      ],
      "name": "RoleGranted",
      "type": "event"
    },
    {
      "anonymous": false,
      "inputs": [
        {
          "indexed": true,
          "internalType": "bytes32",
          "name": "role",
          "type": "bytes32"
        },
        {
          "indexed": true,
          "internalType": "address",
          "name": "account",
          "type": "address"
        },
        {
          "indexed": true,
          "internalType": "address",
          "name": "sender",
          "type": "address"
        }
      ],
      "name": "RoleRevoked",
      "type": "event"
    },
    {
      "anonymous": false,
      "inputs": [
        {
          "indexed": true,
          "internalType": "address",
          "name": "implementation",
          "type": "address"
        }
      ],
      "name": "Upgraded",
      "type": "event"
    },
    {
      "inputs": [],
      "name": "COST",
      "outputs": [
        {
          "internalType": "uint256",
          "name": "",
          "type": "uint256"
        }
      ],
      "stateMutability": "view",
      "type": "function"
    },
    {
      "inputs": [],
      "name": "DEFAULT_ADMIN_ROLE",
      "outputs": [
        {
          "internalType": "bytes32",
          "name": "",
          "type": "bytes32"
        }
      ],
      "stateMutability": "view",
      "type": "function"
    },
    {
      "inputs": [],
      "name": "MANAGER_ROLE",
      "outputs": [
        {
          "internalType": "bytes32",
          "name": "",
          "type": "bytes32"
        }
      ],
      "stateMutability": "view",
      "type": "function"
    },
    {
      "inputs": [],
      "name": "UPGRADE_INTERFACE_VERSION",
      "outputs": [
        {
          "internalType": "string",
          "name": "",
          "type": "string"
        }
      ],
      "stateMutability": "view",
      "type": "function"
    },
    {
      "inputs": [
        {
          "internalType": "address[]",
          "name": "_accounts",
          "type": "address[]"
        },
        {
          "internalType": "uint256[]",
          "name": "_amounts",
          "type": "uint256[]"
        },
        {
          "internalType": "uint256",
          "name": "_typeId",
          "type": "uint256"
        }
      ],
      "name": "_sendETH",
      "outputs": [],
      "stateMutability": "payable",
      "type": "function"
    },
    {
      "inputs": [
        {
          "internalType": "bytes32",
          "name": "role",
          "type": "bytes32"
        }
      ],
      "name": "getRoleAdmin",
      "outputs": [
        {
          "internalType": "bytes32",
          "name": "",
          "type": "bytes32"
        }
      ],
      "stateMutability": "view",
      "type": "function"
    },
    {
      "inputs": [
        {
          "internalType": "bytes32",
          "name": "role",
          "type": "bytes32"
        },
        {
          "internalType": "address",
          "name": "account",
          "type": "address"
        }
      ],
      "name": "grantRole",
      "outputs": [],
      "stateMutability": "nonpayable",
      "type": "function"
    },
    {
      "inputs": [
        {
          "internalType": "bytes32",
          "name": "role",
          "type": "bytes32"
        },
        {
          "internalType": "address",
          "name": "account",
          "type": "address"
        }
      ],
      "name": "hasRole",
      "outputs": [
        {
          "internalType": "bool",
          "name": "",
          "type": "bool"
        }
      ],
      "stateMutability": "view",
      "type": "function"
    },
    {
      "inputs": [
        {
          "internalType": "address",
          "name": "manager",
          "type": "address"
        },
        {
          "internalType": "contract ICostPolicy",
          "name": "_costPolicy",
          "type": "address"
        }
      ],
      "name": "initialize",
      "outputs": [],
      "stateMutability": "nonpayable",
      "type": "function"
    },
    {
      "inputs": [],
      "name": "proxiableUUID",
      "outputs": [
        {
          "internalType": "bytes32",
          "name": "",
          "type": "bytes32"
        }
      ],
      "stateMutability": "view",
      "type": "function"
    },
    {
      "inputs": [
        {
          "internalType": "bytes32",
          "name": "role",
          "type": "bytes32"
        },
        {
          "internalType": "address",
          "name": "callerConfirmation",
          "type": "address"
        }
      ],
      "name": "renounceRole",
      "outputs": [],
      "stateMutability": "nonpayable",
      "type": "function"
    },
    {
      "inputs": [
        {
          "internalType": "bytes32",
          "name": "role",
          "type": "bytes32"
        },
        {
          "internalType": "address",
          "name": "account",
          "type": "address"
        }
      ],
      "name": "revokeRole",
      "outputs": [],
      "stateMutability": "nonpayable",
      "type": "function"
    },
    {
      "inputs": [
        {
          "internalType": "contract IERC20",
          "name": "_token",
          "type": "address"
        },
        {
          "internalType": "address[]",
          "name": "_accounts",
          "type": "address[]"
        },
        {
          "internalType": "uint256[]",
          "name": "_amounts",
          "type": "uint256[]"
        },
        {
          "internalType": "uint256",
          "name": "_typeId",
          "type": "uint256"
        }
      ],
      "name": "send",
      "outputs": [],
      "stateMutability": "payable",
      "type": "function"
    },
    {
      "inputs": [
        {
          "internalType": "address[]",
          "name": "_accounts",
          "type": "address[]"
        },
        {
          "internalType": "uint256[]",
          "name": "_amounts",
          "type": "uint256[]"
        },
        {
          "internalType": "uint256",
          "name": "_typeId",
          "type": "uint256"
        }
      ],
      "name": "sendETH",
      "outputs": [],
      "stateMutability": "payable",
      "type": "function"
    },
    {
      "inputs": [
        {
          "internalType": "bytes4",
          "name": "interfaceId",
          "type": "bytes4"
        }
      ],
      "name": "supportsInterface",
      "outputs": [
        {
          "internalType": "bool",
          "name": "",
          "type": "bool"
        }
      ],
      "stateMutability": "view",
      "type": "function"
    },
    {
      "inputs": [
        {
          "internalType": "address",
          "name": "newImplementation",
          "type": "address"
        },
        {
          "internalType": "bytes",
          "name": "data",
          "type": "bytes"
        }
      ],
      "name": "upgradeToAndCall",
      "outputs": [],
      "stateMutability": "payable",
      "type": "function"
    },
    {
      "inputs": [
        {
          "internalType": "contract IERC20",
          "name": "_token",
          "type": "address"
        },
        {
          "internalType": "address",
          "name": "_recipient",
          "type": "address"
        },
        {
          "internalType": "uint256",
          "name": "_value",
          "type": "uint256"
        }
      ],
      "name": "withdrawERC20",
      "outputs": [
        {
          "internalType": "bool",
          "name": "success",
          "type": "bool"
        }
      ],
      "stateMutability": "nonpayable",
      "type": "function"
    },
    {
      "inputs": [
        {
          "internalType": "address",
          "name": "_recipient",
          "type": "address"
        }
      ],
      "name": "withdrawETH",
      "outputs": [
        {
          "internalType": "bool",
          "name": "success",
          "type": "bool"
        }
      ],
      "stateMutability": "nonpayable",
      "type": "function"
    }
  ],
  "transactionHash": "0x651c1a324dbba9dfa98b3e1a48f20e7dd278cc27064b3b1e820e9d4bb4592e75",
  "args": [],
  "numDeployments": 1,
  "solcInputHash": "affb292b097d71e02b3cef166b6ef3b5",
  "bytecode": "0x60a06040523060805234801561001457600080fd5b5061001d610022565b6100d4565b7ff0c57e16840df040f15088dc2f81fe391c3923bec73e23a9662efc9c229c6a00805468010000000000000000900460ff16156100725760405163f92ee8a960e01b815260040160405180910390fd5b80546001600160401b03908116146100d15780546001600160401b0319166001600160401b0390811782556040519081527fc7f505b2f371ae2175ee4913f4499e1f2633a7b5936321eed1cdaeb6115181d29060200160405180910390a15b50565b608051611b446100fd60003960008181610ecf01528181610ef8015261107b0152611b446000f3fe6080604052600436106101295760003560e01c8063690d8320116100a5578063a217fddf11610074578063bf8fbbd211610059578063bf8fbbd214610393578063d547741f146103ad578063ec87621c146103cd57600080fd5b8063a217fddf14610328578063ad3cb1cc1461033d57600080fd5b8063690d83201461027d57806369e7c1821461029d5780638d4a58de146102b057806391d14854146102c357600080fd5b806344004cc1116100fc5780634f1ef286116100e15780634f1ef2861461024257806352d1902d146102555780635c2e92c71461026a57600080fd5b806344004cc114610202578063485cc9551461022257600080fd5b806301ffc9a71461012e578063248a9ca3146101635780632f2ff15d146101c057806336568abe146101e2575b600080fd5b34801561013a57600080fd5b5061014e610149366004611638565b610401565b60405190151581526020015b60405180910390f35b34801561016f57600080fd5b506101b261017e36600461167a565b60009081527f02dd7bc7dec4dceedda775e58dd541e08a116c6c53815c0bd028192f7b626800602052604090206001015490565b60405190815260200161015a565b3480156101cc57600080fd5b506101e06101db3660046116a8565b61049a565b005b3480156101ee57600080fd5b506101e06101fd3660046116a8565b6104e4565b34801561020e57600080fd5b5061014e61021d3660046116d8565b610535565b34801561022e57600080fd5b506101e061023d366004611719565b6105f1565b6101e061025036600461175d565b610760565b34801561026157600080fd5b506101b261077f565b6101e061027836600461186d565b6107ae565b34801561028957600080fd5b5061014e6102983660046118e1565b610919565b6101e06102ab36600461186d565b610a14565b6101e06102be3660046118fe565b610b57565b3480156102cf57600080fd5b5061014e6102de3660046116a8565b60009182527f02dd7bc7dec4dceedda775e58dd541e08a116c6c53815c0bd028192f7b626800602090815260408084206001600160a01b0393909316845291905290205460ff1690565b34801561033457600080fd5b506101b2600081565b34801561034957600080fd5b506103866040518060400160405280600581526020017f352e302e3000000000000000000000000000000000000000000000000000000081525081565b60405161015a91906119ad565b34801561039f57600080fd5b506101b2655af3107a400081565b3480156103b957600080fd5b506101e06103c83660046116a8565b610c45565b3480156103d957600080fd5b506101b27f241ecf16d79d0f8dbfb92cbc07fe17840425976cf0667f022fe9877caa831b0881565b60007fffffffff0000000000000000000000000000000000000000000000000000000082167f7965db0b00000000000000000000000000000000000000000000000000000000148061049457507f01ffc9a7000000000000000000000000000000000000000000000000000000007fffffffff000000000000000000000000000000000000000000000000000000008316145b92915050565b60008281527f02dd7bc7dec4dceedda775e58dd541e08a116c6c53815c0bd028192f7b62680060205260409020600101546104d481610c89565b6104de8383610c96565b50505050565b6001600160a01b0381163314610526576040517f6697b23200000000000000000000000000000000000000000000000000000000815260040160405180910390fd5b6105308282610d65565b505050565b3360009081527f06484cc59dc38e4f67c31122333a17ca81b3ca18cdf02bfc298072fa52b0316a602052604081205460ff166105845760405163607e454560e11b815260040160405180910390fd5b836105996001600160a01b0382168585610e0b565b604080516001600160a01b038088168252861660208201529081018490527facf3ec80f13d1c43e4c70cdf27a5966509d7582fff9fe9c2d4d2bc3268b19a2d9060600160405180910390a160019150505b9392505050565b7ff0c57e16840df040f15088dc2f81fe391c3923bec73e23a9662efc9c229c6a00805468010000000000000000810460ff16159067ffffffffffffffff1660008115801561063c5750825b905060008267ffffffffffffffff1660011480156106595750303b155b905081158015610667575080155b1561069e576040517ff92ee8a900000000000000000000000000000000000000000000000000000000815260040160405180910390fd5b845467ffffffffffffffff1916600117855583156106d257845468ff00000000000000001916680100000000000000001785555b6106db33610e7f565b6106e487610e9a565b6000805473ffffffffffffffffffffffffffffffffffffffff19166001600160a01b038816179055831561075757845468ff000000000000000019168555604051600181527fc7f505b2f371ae2175ee4913f4499e1f2633a7b5936321eed1cdaeb6115181d29060200160405180910390a15b50505050505050565b610768610ec4565b61077182610f7d565b61077b8282610f88565b5050565b6000610789611070565b507f360894a13ba1a3210667c828492db98dca3e2076cc3735a920a3ca505d382bbc90565b60005b848110156108b45760008686838181106107cd576107cd6119e0565b90506020020160208101906107e291906118e1565b905060008585848181106107f8576107f86119e0565b9050602002013590506000826001600160a01b03168260405160006040518083038185875af1925050503d806000811461084e576040519150601f19603f3d011682016040523d82523d6000602084013e610853565b606091505b50509050806108a95760405162461bcd60e51b815260206004820152601060248201527f5472616e73666572206661696c65642e0000000000000000000000000000000060448201526064015b60405180910390fd5b5050506001016107b1565b5073eeeeeeeeeeeeeeeeeeeeeeeeeeeeeeeeeeeeeeee6001600160a01b03167fcb032389cc8d937b20e8a4934bb2d2a10e285541bf13d6d8d863b8d1e2f7e95d868686868660405161090a9594939291906119f6565b60405180910390a25050505050565b3360009081527f06484cc59dc38e4f67c31122333a17ca81b3ca18cdf02bfc298072fa52b0316a602052604081205460ff166109685760405163607e454560e11b815260040160405180910390fd5b6000826001600160a01b03164760405160006040518083038185875af1925050503d80600081146109b5576040519150601f19603f3d011682016040523d82523d6000602084013e6109ba565b606091505b5050905080610a0b5760405162461bcd60e51b815260206004820152601460248201527f4661696c656420746f2073656e6420457468657200000000000000000000000060448201526064016108a0565b50600192915050565b838214610a4d576040517fff633a3800000000000000000000000000000000000000000000000000000000815260040160405180910390fd5b6000805b83811015610a8757848482818110610a6b57610a6b6119e0565b9050602002013582610a7d9190611a96565b9150600101610a51565b5060008054604051635288d94560e01b815273eeeeeeeeeeeeeeeeeeeeeeeeeeeeeeeeeeeeeeee60048201526024810188905260448101869052606481018590526001600160a01b0390911690635288d94590608401602060405180830381865afa158015610afa573d6000803e3d6000fd5b505050506040513d601f19601f82011682018060405250810190610b1e9190611ab7565b9050610b2a8183611a96565b341015610b4a576040516377e47bb960e01b815260040160405180910390fd5b61075787878787876107ae565b838214610b90576040517fff633a3800000000000000000000000000000000000000000000000000000000815260040160405180910390fd5b60008054604051635288d94560e01b81526001600160a01b03898116600483015260248201889052604482018690526064820185905290911690635288d94590608401602060405180830381865afa158015610bf0573d6000803e3d6000fd5b505050506040513d601f19601f82011682018060405250810190610c149190611ab7565b905080341015610c37576040516377e47bb960e01b815260040160405180910390fd5b6107578787878787876110b9565b60008281527f02dd7bc7dec4dceedda775e58dd541e08a116c6c53815c0bd028192f7b6268006020526040902060010154610c7f81610c89565b6104de8383610d65565b610c938133611184565b50565b60008281527f02dd7bc7dec4dceedda775e58dd541e08a116c6c53815c0bd028192f7b626800602081815260408084206001600160a01b038616855290915282205460ff16610d5b576000848152602082815260408083206001600160a01b03871684529091529020805460ff19166001179055610d113390565b6001600160a01b0316836001600160a01b0316857f2f8788117e7eff1d82e926ec794901d17c78024a50270940304540a733656f0d60405160405180910390a46001915050610494565b6000915050610494565b60008281527f02dd7bc7dec4dceedda775e58dd541e08a116c6c53815c0bd028192f7b626800602081815260408084206001600160a01b038616855290915282205460ff1615610d5b576000848152602082815260408083206001600160a01b0387168085529252808320805460ff1916905551339287917ff6391f5c32d9c69d2a47ea670b442974b53935d1edc7fd64eb21e047a839171b9190a46001915050610494565b6040516001600160a01b0383811660248301526044820183905261053091859182169063a9059cbb906064015b604051602081830303815290604052915060e01b6020820180517bffffffffffffffffffffffffffffffffffffffffffffffffffffffff8381831617835250505050611211565b610e8761128d565b610e8f6112f4565b61077b600082610c96565b61077b7f241ecf16d79d0f8dbfb92cbc07fe17840425976cf0667f022fe9877caa831b0882610c96565b306001600160a01b037f0000000000000000000000000000000000000000000000000000000000000000161480610f5d57507f00000000000000000000000000000000000000000000000000000000000000006001600160a01b0316610f517f360894a13ba1a3210667c828492db98dca3e2076cc3735a920a3ca505d382bbc546001600160a01b031690565b6001600160a01b031614155b15610f7b5760405163703e46dd60e11b815260040160405180910390fd5b565b600061077b81610c89565b816001600160a01b03166352d1902d6040518163ffffffff1660e01b8152600401602060405180830381865afa925050508015610fe2575060408051601f3d908101601f19168201909252610fdf91810190611ab7565b60015b61100a57604051634c9c8ce360e01b81526001600160a01b03831660048201526024016108a0565b7f360894a13ba1a3210667c828492db98dca3e2076cc3735a920a3ca505d382bbc8114611066576040517faa1d49a4000000000000000000000000000000000000000000000000000000008152600481018290526024016108a0565b61053083836112fc565b306001600160a01b037f00000000000000000000000000000000000000000000000000000000000000001614610f7b5760405163703e46dd60e11b815260040160405180910390fd5b60005b848110156111325760008686838181106110d8576110d86119e0565b90506020020160208101906110ed91906118e1565b90506000858584818110611103576111036119e0565b9050602002013590506111286111163390565b6001600160a01b038b16908484611352565b50506001016110bc565b50856001600160a01b03167fcb032389cc8d937b20e8a4934bb2d2a10e285541bf13d6d8d863b8d1e2f7e95d86868686866040516111749594939291906119f6565b60405180910390a2505050505050565b60008281527f02dd7bc7dec4dceedda775e58dd541e08a116c6c53815c0bd028192f7b626800602090815260408083206001600160a01b038516845290915290205460ff1661077b576040517fe2517d3f0000000000000000000000000000000000000000000000000000000081526001600160a01b0382166004820152602481018390526044016108a0565b60006112266001600160a01b0384168361138b565b9050805160001415801561124b5750808060200190518101906112499190611ad0565b155b15610530576040517f5274afe70000000000000000000000000000000000000000000000000000000081526001600160a01b03841660048201526024016108a0565b7ff0c57e16840df040f15088dc2f81fe391c3923bec73e23a9662efc9c229c6a005468010000000000000000900460ff16610f7b576040517fd7e6bcf800000000000000000000000000000000000000000000000000000000815260040160405180910390fd5b610f7b61128d565b61130582611399565b6040516001600160a01b038316907fbc7cd75a20ee27fd9adebab32041f755214dbc6bffa90cc0225b39da2e5c2d3b90600090a280511561134a57610530828261141d565b61077b611493565b6040516001600160a01b0384811660248301528381166044830152606482018390526104de9186918216906323b872dd90608401610e38565b60606105ea838360006114cb565b806001600160a01b03163b6000036113cf57604051634c9c8ce360e01b81526001600160a01b03821660048201526024016108a0565b7f360894a13ba1a3210667c828492db98dca3e2076cc3735a920a3ca505d382bbc805473ffffffffffffffffffffffffffffffffffffffff19166001600160a01b0392909216919091179055565b6060600080846001600160a01b03168460405161143a9190611af2565b600060405180830381855af49150503d8060008114611475576040519150601f19603f3d011682016040523d82523d6000602084013e61147a565b606091505b509150915061148a858383611581565b95945050505050565b3415610f7b576040517fb398979f00000000000000000000000000000000000000000000000000000000815260040160405180910390fd5b606081471015611509576040517fcd7860590000000000000000000000000000000000000000000000000000000081523060048201526024016108a0565b600080856001600160a01b031684866040516115259190611af2565b60006040518083038185875af1925050503d8060008114611562576040519150601f19603f3d011682016040523d82523d6000602084013e611567565b606091505b5091509150611577868383611581565b9695505050505050565b60608261159657611591826115f6565b6105ea565b81511580156115ad57506001600160a01b0384163b155b156115ef576040517f9996b3150000000000000000000000000000000000000000000000000000000081526001600160a01b03851660048201526024016108a0565b50806105ea565b8051156116065780518082602001fd5b6040517f1425ea4200000000000000000000000000000000000000000000000000000000815260040160405180910390fd5b60006020828403121561164a57600080fd5b81357fffffffff00000000000000000000000000000000000000000000000000000000811681146105ea57600080fd5b60006020828403121561168c57600080fd5b5035919050565b6001600160a01b0381168114610c9357600080fd5b600080604083850312156116bb57600080fd5b8235915060208301356116cd81611693565b809150509250929050565b6000806000606084860312156116ed57600080fd5b83356116f881611693565b9250602084013561170881611693565b929592945050506040919091013590565b6000806040838503121561172c57600080fd5b823561173781611693565b915060208301356116cd81611693565b634e487b7160e01b600052604160045260246000fd5b6000806040838503121561177057600080fd5b823561177b81611693565b9150602083013567ffffffffffffffff8082111561179857600080fd5b818501915085601f8301126117ac57600080fd5b8135818111156117be576117be611747565b604051601f8201601f19908116603f011681019083821181831017156117e6576117e6611747565b816040528281528860208487010111156117ff57600080fd5b8260208601602083013760006020848301015280955050505050509250929050565b60008083601f84011261183357600080fd5b50813567ffffffffffffffff81111561184b57600080fd5b6020830191508360208260051b850101111561186657600080fd5b9250929050565b60008060008060006060868803121561188557600080fd5b853567ffffffffffffffff8082111561189d57600080fd5b6118a989838a01611821565b909750955060208801359150808211156118c257600080fd5b506118cf88828901611821565b96999598509660400135949350505050565b6000602082840312156118f357600080fd5b81356105ea81611693565b6000806000806000806080878903121561191757600080fd5b863561192281611693565b9550602087013567ffffffffffffffff8082111561193f57600080fd5b61194b8a838b01611821565b9097509550604089013591508082111561196457600080fd5b5061197189828a01611821565b979a9699509497949695606090950135949350505050565b60005b838110156119a457818101518382015260200161198c565b50506000910152565b60208152600082518060208401526119cc816040850160208701611989565b601f01601f19169190910160400192915050565b634e487b7160e01b600052603260045260246000fd5b6060808252810185905260008660808301825b88811015611a39578235611a1c81611693565b6001600160a01b0316825260209283019290910190600101611a09565b5083810360208501528581527f07ffffffffffffffffffffffffffffffffffffffffffffffffffffffffffffff861115611a7257600080fd5b8560051b915081876020830137604093909301939093525001602001949350505050565b8082018082111561049457634e487b7160e01b600052601160045260246000fd5b600060208284031215611ac957600080fd5b5051919050565b600060208284031215611ae257600080fd5b815180151581146105ea57600080fd5b60008251611b04818460208701611989565b919091019291505056fea2646970667358221220960cb181096c821211adf94e5655098da2fcfc860896c0adbeeb87b6f3f1933564736f6c63430008170033",
  "devdoc": {
    "errors": {
      "AccessControlBadConfirmation()": [
        {
          "details": "The caller of a function is not the expected one. NOTE: Don't confuse with {AccessControlUnauthorizedAccount}."
        }
      ],
      "AccessControlUnauthorizedAccount(address,bytes32)": [
        {
          "details": "The `account` is missing a role."
        }
      ],
      "AddressEmptyCode(address)": [
        {
          "details": "There's no code at `target` (it is not a contract)."
        }
      ],
      "AddressInsufficientBalance(address)": [
        {
          "details": "The ETH balance of the account is not enough to perform the operation."
        }
      ],
      "ERC1967InvalidImplementation(address)": [
        {
          "details": "The `implementation` of the proxy is invalid."
        }
      ],
      "ERC1967NonPayable()": [
        {
          "details": "An upgrade function sees `msg.value > 0` that may be lost."
        }
      ],
      "FailedInnerCall()": [
        {
          "details": "A call to an address target failed. The target may have reverted."
        }
      ],
      "InvalidInitialization()": [
        {
          "details": "The contract is already initialized."
        }
      ],
      "NotInitializing()": [
        {
          "details": "The contract is not initializing."
        }
      ],
      "SafeERC20FailedOperation(address)": [
        {
          "details": "An operation with an ERC20 token failed."
        }
      ],
      "UUPSUnauthorizedCallContext()": [
        {
          "details": "The call is from an unauthorized context."
        }
      ],
      "UUPSUnsupportedProxiableUUID(bytes32)": [
        {
          "details": "The storage `slot` is unsupported as a UUID."
        }
      ]
    },
    "events": {
      "Initialized(uint64)": {
        "details": "Triggered when the contract has been initialized or reinitialized."
      },
      "RoleAdminChanged(bytes32,bytes32,bytes32)": {
        "details": "Emitted when `newAdminRole` is set as ``role``'s admin role, replacing `previousAdminRole` `DEFAULT_ADMIN_ROLE` is the starting admin for all roles, despite {RoleAdminChanged} not being emitted signaling this."
      },
      "RoleGranted(bytes32,address,address)": {
        "details": "Emitted when `account` is granted `role`. `sender` is the account that originated the contract call, an admin role bearer except when using {AccessControl-_setupRole}."
      },
      "RoleRevoked(bytes32,address,address)": {
        "details": "Emitted when `account` is revoked `role`. `sender` is the account that originated the contract call:   - if using `revokeRole`, it is the admin role bearer   - if using `renounceRole`, it is the role bearer (i.e. `account`)"
      },
      "Upgraded(address)": {
        "details": "Emitted when the implementation is upgraded."
      }
    },
    "kind": "dev",
    "methods": {
      "getRoleAdmin(bytes32)": {
        "details": "Returns the admin role that controls `role`. See {grantRole} and {revokeRole}. To change a role's admin, use {_setRoleAdmin}."
      },
      "grantRole(bytes32,address)": {
        "details": "Grants `role` to `account`. If `account` had not been already granted `role`, emits a {RoleGranted} event. Requirements: - the caller must have ``role``'s admin role. May emit a {RoleGranted} event."
      },
      "hasRole(bytes32,address)": {
        "details": "Returns `true` if `account` has been granted `role`."
      },
      "proxiableUUID()": {
        "details": "Implementation of the ERC1822 {proxiableUUID} function. This returns the storage slot used by the implementation. It is used to validate the implementation's compatibility when performing an upgrade. IMPORTANT: A proxy pointing at a proxiable contract should not be considered proxiable itself, because this risks bricking a proxy that upgrades to it, by delegating to itself until out of gas. Thus it is critical that this function revert if invoked through a proxy. This is guaranteed by the `notDelegated` modifier."
      },
      "renounceRole(bytes32,address)": {
        "details": "Revokes `role` from the calling account. Roles are often managed via {grantRole} and {revokeRole}: this function's purpose is to provide a mechanism for accounts to lose their privileges if they are compromised (such as when a trusted device is misplaced). If the calling account had been revoked `role`, emits a {RoleRevoked} event. Requirements: - the caller must be `callerConfirmation`. May emit a {RoleRevoked} event."
      },
      "revokeRole(bytes32,address)": {
        "details": "Revokes `role` from `account`. If `account` had been granted `role`, emits a {RoleRevoked} event. Requirements: - the caller must have ``role``'s admin role. May emit a {RoleRevoked} event."
      },
      "send(address,address[],uint256[],uint256)": {
        "details": "suppose token is approved."
      },
      "supportsInterface(bytes4)": {
        "details": "See {IERC165-supportsInterface}."
      },
      "upgradeToAndCall(address,bytes)": {
        "custom:oz-upgrades-unsafe-allow-reachable": "delegatecall",
        "details": "Upgrade the implementation of the proxy to `newImplementation`, and subsequently execute the function call encoded in `data`. Calls {_authorizeUpgrade}. Emits an {Upgraded} event."
      }
    },
    "version": 1
  },
  "userdoc": {
    "kind": "user",
    "methods": {
      "send(address,address[],uint256[],uint256)": {
        "notice": "send"
      },
      "withdrawETH(address)": {
        "notice": "Allows the owner of the contract to withdraw any funds that may reside on the contract address."
      }
    },
    "version": 1
  },
  "storageLayout": {
    "storage": [
      {
        "astId": 3133,
        "contract": "src/ERC20BatchSender.sol:ERC20BatchSender",
        "label": "costPolicy",
        "offset": 0,
        "slot": "0",
        "type": "t_contract(ICostPolicy)3596"
      }
    ],
    "types": {
      "t_contract(ICostPolicy)3596": {
        "encoding": "inplace",
        "label": "contract ICostPolicy",
        "numberOfBytes": "20"
      }
    }
  }
}