{
  "address": "0xB92a9708E3e0B885C42d0ADb7deEE3abFe9E5273",
  "abi": [
    {
      "inputs": [],
      "stateMutability": "nonpayable",
      "type": "constructor"
    },
    {
      "inputs": [],
      "name": "AccessControlBadConfirmation",
      "type": "error"
    },
    {
      "inputs": [
        {
          "internalType": "address",
          "name": "account",
          "type": "address"
        },
        {
          "internalType": "bytes32",
          "name": "neededRole",
          "type": "bytes32"
        }
      ],
      "name": "AccessControlUnauthorizedAccount",
      "type": "error"
    },
    {
      "inputs": [
        {
          "internalType": "address",
          "name": "target",
          "type": "address"
        }
      ],
      "name": "AddressEmptyCode",
      "type": "error"
    },
    {
      "inputs": [
        {
          "internalType": "address",
          "name": "account",
          "type": "address"
        }
      ],
      "name": "AddressInsufficientBalance",
      "type": "error"
    },
    {
      "inputs": [
        {
          "internalType": "address",
          "name": "implementation",
          "type": "address"
        }
      ],
      "name": "ERC1967InvalidImplementation",
      "type": "error"
    },
    {
      "inputs": [],
      "name": "ERC1967NonPayable",
      "type": "error"
    },
    {
      "inputs": [],
      "name": "FailedInnerCall",
      "type": "error"
    },
    {
      "inputs": [],
      "name": "InsufficientCost",
      "type": "error"
    },
    {
      "inputs": [],
      "name": "InvalidInitialization",
      "type": "error"
    },
    {
      "inputs": [],
      "name": "LengthMismatch",
      "type": "error"
    },
    {
      "inputs": [],
      "name": "NotInitializing",
      "type": "error"
    },
    {
      "inputs": [],
      "name": "NotManager",
      "type": "error"
    },
    {
      "inputs": [
        {
          "internalType": "address",
          "name": "token",
          "type": "address"
        }
      ],
      "name": "SafeERC20FailedOperation",
      "type": "error"
    },
    {
      "inputs": [],
      "name": "UUPSUnauthorizedCallContext",
      "type": "error"
    },
    {
      "inputs": [
        {
          "internalType": "bytes32",
          "name": "slot",
          "type": "bytes32"
        }
      ],
      "name": "UUPSUnsupportedProxiableUUID",
      "type": "error"
    },
    {
      "anonymous": false,
      "inputs": [
        {
          "indexed": true,
          "internalType": "address",
          "name": "token",
          "type": "address"
        },
        {
          "indexed": false,
          "internalType": "address[]",
          "name": "accounts",
          "type": "address[]"
        },
        {
          "indexed": false,
          "internalType": "uint256[]",
          "name": "amounts",
          "type": "uint256[]"
        },
        {
          "indexed": false,
          "internalType": "uint256",
          "name": "typeId",
          "type": "uint256"
        }
      ],
      "name": "BatchSend",
      "type": "event"
    },
    {
      "anonymous": false,
      "inputs": [
        {
          "indexed": false,
          "internalType": "contract ICostPolicyV2",
          "name": "_costPolicy",
          "type": "address"
        }
      ],
      "name": "CostPolicyUpdated",
      "type": "event"
    },
    {
      "anonymous": false,
      "inputs": [
        {
          "indexed": false,
          "internalType": "contract IERC20",
          "name": "_token",
          "type": "address"
        },
        {
          "indexed": false,
          "internalType": "address",
          "name": "_recipient",
          "type": "address"
        },
        {
          "indexed": false,
          "internalType": "uint256",
          "name": "_value",
          "type": "uint256"
        }
      ],
      "name": "ERC20TokenWithdrawn",
      "type": "event"
    },
    {
      "anonymous": false,
      "inputs": [
        {
          "indexed": false,
          "internalType": "address",
          "name": "_feeRecipient",
          "type": "address"
        }
      ],
      "name": "FeeRecipientUpdated",
      "type": "event"
    },
    {
      "anonymous": false,
      "inputs": [
        {
          "indexed": false,
          "internalType": "uint64",
          "name": "version",
          "type": "uint64"
        }
      ],
      "name": "Initialized",
      "type": "event"
    },
    {
      "anonymous": false,
      "inputs": [
        {
          "indexed": true,
          "internalType": "bytes32",
          "name": "role",
          "type": "bytes32"
        },
        {
          "indexed": true,
          "internalType": "bytes32",
          "name": "previousAdminRole",
          "type": "bytes32"
        },
        {
          "indexed": true,
          "internalType": "bytes32",
          "name": "newAdminRole",
          "type": "bytes32"
        }
      ],
      "name": "RoleAdminChanged",
      "type": "event"
    },
    {
      "anonymous": false,
      "inputs": [
        {
          "indexed": true,
          "internalType": "bytes32",
          "name": "role",
          "type": "bytes32"
        },
        {
          "indexed": true,
          "internalType": "address",
          "name": "account",
          "type": "address"
        },
        {
          "indexed": true,
          "internalType": "address",
          "name": "sender",
          "type": "address"
        }
      ],
      "name": "RoleGranted",
      "type": "event"
    },
    {
      "anonymous": false,
      "inputs": [
        {
          "indexed": true,
          "internalType": "bytes32",
          "name": "role",
          "type": "bytes32"
        },
        {
          "indexed": true,
          "internalType": "address",
          "name": "account",
          "type": "address"
        },
        {
          "indexed": true,
          "internalType": "address",
          "name": "sender",
          "type": "address"
        }
      ],
      "name": "RoleRevoked",
      "type": "event"
    },
    {
      "anonymous": false,
      "inputs": [
        {
          "indexed": true,
          "internalType": "address",
          "name": "implementation",
          "type": "address"
        }
      ],
      "name": "Upgraded",
      "type": "event"
    },
    {
      "inputs": [],
      "name": "DEFAULT_ADMIN_ROLE",
      "outputs": [
        {
          "internalType": "bytes32",
          "name": "",
          "type": "bytes32"
        }
      ],
      "stateMutability": "view",
      "type": "function"
    },
    {
      "inputs": [],
      "name": "MANAGER_ROLE",
      "outputs": [
        {
          "internalType": "bytes32",
          "name": "",
          "type": "bytes32"
        }
      ],
      "stateMutability": "view",
      "type": "function"
    },
    {
      "inputs": [],
      "name": "UPGRADE_INTERFACE_VERSION",
      "outputs": [
        {
          "internalType": "string",
          "name": "",
          "type": "string"
        }
      ],
      "stateMutability": "view",
      "type": "function"
    },
    {
      "inputs": [
        {
          "internalType": "address[]",
          "name": "_accounts",
          "type": "address[]"
        },
        {
          "internalType": "uint256[]",
          "name": "_amounts",
          "type": "uint256[]"
        },
        {
          "internalType": "uint256",
          "name": "_typeId",
          "type": "uint256"
        }
      ],
      "name": "_sendETH",
      "outputs": [],
      "stateMutability": "payable",
      "type": "function"
    },
    {
      "inputs": [],
      "name": "costPolicy",
      "outputs": [
        {
          "internalType": "contract ICostPolicyV2",
          "name": "",
          "type": "address"
        }
      ],
      "stateMutability": "view",
      "type": "function"
    },
    {
      "inputs": [],
      "name": "feeRecipient",
      "outputs": [
        {
          "internalType": "address",
          "name": "",
          "type": "address"
        }
      ],
      "stateMutability": "view",
      "type": "function"
    },
    {
      "inputs": [
        {
          "internalType": "bytes32",
          "name": "role",
          "type": "bytes32"
        }
      ],
      "name": "getRoleAdmin",
      "outputs": [
        {
          "internalType": "bytes32",
          "name": "",
          "type": "bytes32"
        }
      ],
      "stateMutability": "view",
      "type": "function"
    },
    {
      "inputs": [
        {
          "internalType": "bytes32",
          "name": "role",
          "type": "bytes32"
        },
        {
          "internalType": "address",
          "name": "account",
          "type": "address"
        }
      ],
      "name": "grantRole",
      "outputs": [],
      "stateMutability": "nonpayable",
      "type": "function"
    },
    {
      "inputs": [
        {
          "internalType": "bytes32",
          "name": "role",
          "type": "bytes32"
        },
        {
          "internalType": "address",
          "name": "account",
          "type": "address"
        }
      ],
      "name": "hasRole",
      "outputs": [
        {
          "internalType": "bool",
          "name": "",
          "type": "bool"
        }
      ],
      "stateMutability": "view",
      "type": "function"
    },
    {
      "inputs": [
        {
          "internalType": "address",
          "name": "manager",
          "type": "address"
        },
        {
          "internalType": "contract ICostPolicyV2",
          "name": "_costPolicy",
          "type": "address"
        },
        {
          "internalType": "address",
          "name": "_feeRecipient",
          "type": "address"
        }
      ],
      "name": "initialize",
      "outputs": [],
      "stateMutability": "nonpayable",
      "type": "function"
    },
    {
      "inputs": [],
      "name": "proxiableUUID",
      "outputs": [
        {
          "internalType": "bytes32",
          "name": "",
          "type": "bytes32"
        }
      ],
      "stateMutability": "view",
      "type": "function"
    },
    {
      "inputs": [
        {
          "internalType": "contract ICostPolicyV2",
          "name": "_costPolicy",
          "type": "address"
        },
        {
          "internalType": "address",
          "name": "_feeRecipient",
          "type": "address"
        }
      ],
      "name": "reinitialize",
      "outputs": [],
      "stateMutability": "nonpayable",
      "type": "function"
    },
    {
      "inputs": [
        {
          "internalType": "bytes32",
          "name": "role",
          "type": "bytes32"
        },
        {
          "internalType": "address",
          "name": "callerConfirmation",
          "type": "address"
        }
      ],
      "name": "renounceRole",
      "outputs": [],
      "stateMutability": "nonpayable",
      "type": "function"
    },
    {
      "inputs": [
        {
          "internalType": "bytes32",
          "name": "role",
          "type": "bytes32"
        },
        {
          "internalType": "address",
          "name": "account",
          "type": "address"
        }
      ],
      "name": "revokeRole",
      "outputs": [],
      "stateMutability": "nonpayable",
      "type": "function"
    },
    {
      "inputs": [
        {
          "internalType": "contract IERC20",
          "name": "_token",
          "type": "address"
        },
        {
          "internalType": "address[]",
          "name": "_accounts",
          "type": "address[]"
        },
        {
          "internalType": "uint256[]",
          "name": "_amounts",
          "type": "uint256[]"
        },
        {
          "internalType": "uint256",
          "name": "_totalAmount",
          "type": "uint256"
        },
        {
          "internalType": "uint256",
          "name": "_typeId",
          "type": "uint256"
        }
      ],
      "name": "send",
      "outputs": [],
      "stateMutability": "payable",
      "type": "function"
    },
    {
      "inputs": [
        {
          "internalType": "address[]",
          "name": "_accounts",
          "type": "address[]"
        },
        {
          "internalType": "uint256[]",
          "name": "_amounts",
          "type": "uint256[]"
        },
        {
          "internalType": "uint256",
          "name": "_totalAmount",
          "type": "uint256"
        },
        {
          "internalType": "uint256",
          "name": "_typeId",
          "type": "uint256"
        }
      ],
      "name": "sendETH",
      "outputs": [],
      "stateMutability": "payable",
      "type": "function"
    },
    {
      "inputs": [
        {
          "internalType": "contract ICostPolicyV2",
          "name": "_costPolicy",
          "type": "address"
        }
      ],
      "name": "setCostPolicy",
      "outputs": [],
      "stateMutability": "nonpayable",
      "type": "function"
    },
    {
      "inputs": [
        {
          "internalType": "address",
          "name": "_feeRecipient",
          "type": "address"
        }
      ],
      "name": "setFeeRecipient",
      "outputs": [],
      "stateMutability": "nonpayable",
      "type": "function"
    },
    {
      "inputs": [
        {
          "internalType": "bytes4",
          "name": "interfaceId",
          "type": "bytes4"
        }
      ],
      "name": "supportsInterface",
      "outputs": [
        {
          "internalType": "bool",
          "name": "",
          "type": "bool"
        }
      ],
      "stateMutability": "view",
      "type": "function"
    },
    {
      "inputs": [
        {
          "internalType": "address",
          "name": "newImplementation",
          "type": "address"
        },
        {
          "internalType": "bytes",
          "name": "data",
          "type": "bytes"
        }
      ],
      "name": "upgradeToAndCall",
      "outputs": [],
      "stateMutability": "payable",
      "type": "function"
    },
    {
      "inputs": [
        {
          "internalType": "contract IERC20",
          "name": "_token",
          "type": "address"
        },
        {
          "internalType": "address",
          "name": "_recipient",
          "type": "address"
        },
        {
          "internalType": "uint256",
          "name": "_value",
          "type": "uint256"
        }
      ],
      "name": "withdrawERC20",
      "outputs": [
        {
          "internalType": "bool",
          "name": "success",
          "type": "bool"
        }
      ],
      "stateMutability": "nonpayable",
      "type": "function"
    },
    {
      "inputs": [
        {
          "internalType": "address",
          "name": "_recipient",
          "type": "address"
        }
      ],
      "name": "withdrawETH",
      "outputs": [
        {
          "internalType": "bool",
          "name": "success",
          "type": "bool"
        }
      ],
      "stateMutability": "nonpayable",
      "type": "function"
    }
  ],
  "transactionHash": "0x61ac55968bccfeaa76fb1be9a013981b38810e35f4e82d22b51b1a862e45e5bd",
  "args": [],
  "numDeployments": 2,
  "solcInputHash": "d2367b43333a14eb08e02d5e74e9feb4",
  "bytecode": "0x60a0604052306080523480156200001557600080fd5b506200002062000026565b620000da565b7ff0c57e16840df040f15088dc2f81fe391c3923bec73e23a9662efc9c229c6a00805468010000000000000000900460ff1615620000775760405163f92ee8a960e01b815260040160405180910390fd5b80546001600160401b0390811614620000d75780546001600160401b0319166001600160401b0390811782556040519081527fc7f505b2f371ae2175ee4913f4499e1f2633a7b5936321eed1cdaeb6115181d29060200160405180910390a15b50565b608051612600620001046000396000818161163c0152818161166501526119ac01526126006000f3fe6080604052600436106101755760003560e01c8063690d8320116100cb578063ad3cb1cc1161007f578063d547741f11610059578063d547741f146104ab578063e74b981b146104cb578063ec87621c146104eb57600080fd5b8063ad3cb1cc14610408578063ae0e743d1461045e578063c0c53b8b1461048b57600080fd5b806391d14854116100b057806391d1485414610361578063a217fddf146103d3578063a9d951a3146103e857600080fd5b8063690d8320146103215780637159cd081461034157600080fd5b806344004cc11161012d5780634f3310af116101075780634f3310af146102e657806352d1902d146102f95780635c2e92c71461030e57600080fd5b806344004cc11461026157806346904840146102815780634f1ef286146102d357600080fd5b80632f2ff15d1161015e5780632f2ff15d1461020c57806333f53d0e1461022e57806336568abe1461024157600080fd5b806301ffc9a71461017a578063248a9ca3146101af575b600080fd5b34801561018657600080fd5b5061019a610195366004611f83565b61051f565b60405190151581526020015b60405180910390f35b3480156101bb57600080fd5b506101fe6101ca366004611fc5565b60009081527f02dd7bc7dec4dceedda775e58dd541e08a116c6c53815c0bd028192f7b626800602052604090206001015490565b6040519081526020016101a6565b34801561021857600080fd5b5061022c610227366004612000565b6105b8565b005b61022c61023c36600461207c565b610602565b34801561024d57600080fd5b5061022c61025c366004612000565b61077d565b34801561026d57600080fd5b5061019a61027c3660046120fa565b6107db565b34801561028d57600080fd5b506001546102ae9073ffffffffffffffffffffffffffffffffffffffff1681565b60405173ffffffffffffffffffffffffffffffffffffffff90911681526020016101a6565b61022c6102e136600461216a565b6108ca565b61022c6102f436600461224c565b6108e9565b34801561030557600080fd5b506101fe610a6b565b61022c61031c3660046122de565b610a9a565b34801561032d57600080fd5b5061019a61033c366004612352565b610c39565b34801561034d57600080fd5b5061022c61035c366004612352565b610d74565b34801561036d57600080fd5b5061019a61037c366004612000565b60009182527f02dd7bc7dec4dceedda775e58dd541e08a116c6c53815c0bd028192f7b6268006020908152604080842073ffffffffffffffffffffffffffffffffffffffff93909316845291905290205460ff1690565b3480156103df57600080fd5b506101fe600081565b3480156103f457600080fd5b5061022c61040336600461236f565b610e56565b34801561041457600080fd5b506104516040518060400160405280600581526020017f352e302e3000000000000000000000000000000000000000000000000000000081525081565b6040516101a691906123c1565b34801561046a57600080fd5b506000546102ae9073ffffffffffffffffffffffffffffffffffffffff1681565b34801561049757600080fd5b5061022c6104a6366004612412565b610fcf565b3480156104b757600080fd5b5061022c6104c6366004612000565b6111ae565b3480156104d757600080fd5b5061022c6104e6366004612352565b6111f2565b3480156104f757600080fd5b506101fe7f241ecf16d79d0f8dbfb92cbc07fe17840425976cf0667f022fe9877caa831b0881565b60007fffffffff0000000000000000000000000000000000000000000000000000000082167f7965db0b0000000000000000000000000000000000000000000000000000000014806105b257507f01ffc9a7000000000000000000000000000000000000000000000000000000007fffffffff000000000000000000000000000000000000000000000000000000008316145b92915050565b60008281527f02dd7bc7dec4dceedda775e58dd541e08a116c6c53815c0bd028192f7b62680060205260409020600101546105f2816112cd565b6105fc83836112da565b50505050565b84831461063b576040517fff633a3800000000000000000000000000000000000000000000000000000000815260040160405180910390fd5b6000805473ffffffffffffffffffffffffffffffffffffffff1663937b1e1a73eeeeeeeeeeeeeeeeeeeeeeeeeeeeeeeeeeeeeeee3360405160e084901b7fffffffff0000000000000000000000000000000000000000000000000000000016815273ffffffffffffffffffffffffffffffffffffffff92831660048201529116602482015260448101899052606481018790526084810185905260a401602060405180830381865afa1580156106f5573d6000803e3d6000fd5b505050506040513d601f19601f82011682018060405250810190610719919061245d565b90506107258184612476565b34101561075e576040517f77e47bb900000000000000000000000000000000000000000000000000000000815260040160405180910390fd5b610767816113fb565b6107748787878786610a9a565b50505050505050565b73ffffffffffffffffffffffffffffffffffffffff811633146107cc576040517f6697b23200000000000000000000000000000000000000000000000000000000815260040160405180910390fd5b6107d682826114c5565b505050565b3360009081527f06484cc59dc38e4f67c31122333a17ca81b3ca18cdf02bfc298072fa52b0316a602052604081205460ff16610843576040517fc0fc8a8a00000000000000000000000000000000000000000000000000000000815260040160405180910390fd5b8361086573ffffffffffffffffffffffffffffffffffffffff821685856115a3565b6040805173ffffffffffffffffffffffffffffffffffffffff8088168252861660208201529081018490527facf3ec80f13d1c43e4c70cdf27a5966509d7582fff9fe9c2d4d2bc3268b19a2d9060600160405180910390a160019150505b9392505050565b6108d2611624565b6108db8261172a565b6108e58282611735565b5050565b848314610922576040517fff633a3800000000000000000000000000000000000000000000000000000000815260040160405180910390fd5b6000805473ffffffffffffffffffffffffffffffffffffffff1663937b1e1a893360405160e084901b7fffffffff0000000000000000000000000000000000000000000000000000000016815273ffffffffffffffffffffffffffffffffffffffff92831660048201529116602482015260448101899052606481018790526084810185905260a401602060405180830381865afa1580156109c8573d6000803e3d6000fd5b505050506040513d601f19601f820116820180604052508101906109ec919061245d565b905080341015610a28576040517f77e47bb900000000000000000000000000000000000000000000000000000000815260040160405180910390fd5b610a31816113fb565b610a5373ffffffffffffffffffffffffffffffffffffffff891633308661186e565b610a618888888888876118b4565b5050505050505050565b6000610a75611994565b507f360894a13ba1a3210667c828492db98dca3e2076cc3735a920a3ca505d382bbc90565b60005b84811015610bc7576000868683818110610ab957610ab96124b0565b9050602002016020810190610ace9190612352565b90506000858584818110610ae457610ae46124b0565b90506020020135905060008273ffffffffffffffffffffffffffffffffffffffff168260405160006040518083038185875af1925050503d8060008114610b47576040519150601f19603f3d011682016040523d82523d6000602084013e610b4c565b606091505b5050905080610bbc576040517f08c379a000000000000000000000000000000000000000000000000000000000815260206004820152601060248201527f5472616e73666572206661696c65642e0000000000000000000000000000000060448201526064015b60405180910390fd5b505050600101610a9d565b5073eeeeeeeeeeeeeeeeeeeeeeeeeeeeeeeeeeeeeeee73ffffffffffffffffffffffffffffffffffffffff167fcb032389cc8d937b20e8a4934bb2d2a10e285541bf13d6d8d863b8d1e2f7e95d8686868686604051610c2a9594939291906124df565b60405180910390a25050505050565b3360009081527f06484cc59dc38e4f67c31122333a17ca81b3ca18cdf02bfc298072fa52b0316a602052604081205460ff16610ca1576040517fc0fc8a8a00000000000000000000000000000000000000000000000000000000815260040160405180910390fd5b60008273ffffffffffffffffffffffffffffffffffffffff164760405160006040518083038185875af1925050503d8060008114610cfb576040519150601f19603f3d011682016040523d82523d6000602084013e610d00565b606091505b5050905080610d6b576040517f08c379a000000000000000000000000000000000000000000000000000000000815260206004820152601460248201527f4661696c656420746f2073656e642045746865720000000000000000000000006044820152606401610bb3565b50600192915050565b3360009081527f06484cc59dc38e4f67c31122333a17ca81b3ca18cdf02bfc298072fa52b0316a602052604090205460ff16610ddc576040517fc0fc8a8a00000000000000000000000000000000000000000000000000000000815260040160405180910390fd5b600080547fffffffffffffffffffffffff00000000000000000000000000000000000000001673ffffffffffffffffffffffffffffffffffffffff83169081179091556040519081527fb79786a8d6fde4101ec28cbc499490ad0d6e431233404d377c9d0e943f0bf48f906020015b60405180910390a150565b7ff0c57e16840df040f15088dc2f81fe391c3923bec73e23a9662efc9c229c6a0080546003919068010000000000000000900460ff1680610ea55750805467ffffffffffffffff808416911610155b15610edc576040517ff92ee8a900000000000000000000000000000000000000000000000000000000815260040160405180910390fd5b80547fffffffffffffffffffffffffffffffffffffffffffffff0000000000000000001667ffffffffffffffff8316908117680100000000000000001782556000805473ffffffffffffffffffffffffffffffffffffffff8781167fffffffffffffffffffffffff000000000000000000000000000000000000000092831617909255600180549287169290911691909117905581547fffffffffffffffffffffffffffffffffffffffffffffff00ffffffffffffffff1682556040519081527fc7f505b2f371ae2175ee4913f4499e1f2633a7b5936321eed1cdaeb6115181d29060200160405180910390a150505050565b7ff0c57e16840df040f15088dc2f81fe391c3923bec73e23a9662efc9c229c6a00805468010000000000000000810460ff16159067ffffffffffffffff1660008115801561101a5750825b905060008267ffffffffffffffff1660011480156110375750303b155b905081158015611045575080155b1561107c576040517ff92ee8a900000000000000000000000000000000000000000000000000000000815260040160405180910390fd5b84547fffffffffffffffffffffffffffffffffffffffffffffffff000000000000000016600117855583156110dd5784547fffffffffffffffffffffffffffffffffffffffffffffff00ffffffffffffffff16680100000000000000001785555b6110e633611a03565b6110ef88611a1e565b6000805473ffffffffffffffffffffffffffffffffffffffff808a167fffffffffffffffffffffffff00000000000000000000000000000000000000009283161790925560018054928916929091169190911790558315610a615784547fffffffffffffffffffffffffffffffffffffffffffffff00ffffffffffffffff168555604051600181527fc7f505b2f371ae2175ee4913f4499e1f2633a7b5936321eed1cdaeb6115181d29060200160405180910390a15050505050505050565b60008281527f02dd7bc7dec4dceedda775e58dd541e08a116c6c53815c0bd028192f7b62680060205260409020600101546111e8816112cd565b6105fc83836114c5565b3360009081527f06484cc59dc38e4f67c31122333a17ca81b3ca18cdf02bfc298072fa52b0316a602052604090205460ff1661125a576040517fc0fc8a8a00000000000000000000000000000000000000000000000000000000815260040160405180910390fd5b600180547fffffffffffffffffffffffff00000000000000000000000000000000000000001673ffffffffffffffffffffffffffffffffffffffff83169081179091556040519081527f7a7b5a0a132f9e0581eb8527f66eae9ee89c2a3e79d4ac7e41a1f1f4d48a7fc290602001610e4b565b6112d78133611a48565b50565b60008281527f02dd7bc7dec4dceedda775e58dd541e08a116c6c53815c0bd028192f7b6268006020818152604080842073ffffffffffffffffffffffffffffffffffffffff8616855290915282205460ff166113f15760008481526020828152604080832073ffffffffffffffffffffffffffffffffffffffff87168452909152902080547fffffffffffffffffffffffffffffffffffffffffffffffffffffffffffffff0016600117905561138d3390565b73ffffffffffffffffffffffffffffffffffffffff168373ffffffffffffffffffffffffffffffffffffffff16857f2f8788117e7eff1d82e926ec794901d17c78024a50270940304540a733656f0d60405160405180910390a460019150506105b2565b60009150506105b2565b60015460405160009173ffffffffffffffffffffffffffffffffffffffff169083908381818185875af1925050503d8060008114611455576040519150601f19603f3d011682016040523d82523d6000602084013e61145a565b606091505b50509050806108e5576040517f08c379a000000000000000000000000000000000000000000000000000000000815260206004820152601060248201527f5472616e73666572206661696c65642e000000000000000000000000000000006044820152606401610bb3565b60008281527f02dd7bc7dec4dceedda775e58dd541e08a116c6c53815c0bd028192f7b6268006020818152604080842073ffffffffffffffffffffffffffffffffffffffff8616855290915282205460ff16156113f15760008481526020828152604080832073ffffffffffffffffffffffffffffffffffffffff8716808552925280832080547fffffffffffffffffffffffffffffffffffffffffffffffffffffffffffffff0016905551339287917ff6391f5c32d9c69d2a47ea670b442974b53935d1edc7fd64eb21e047a839171b9190a460019150506105b2565b60405173ffffffffffffffffffffffffffffffffffffffff8381166024830152604482018390526107d691859182169063a9059cbb906064015b604051602081830303815290604052915060e01b6020820180517bffffffffffffffffffffffffffffffffffffffffffffffffffffffff8381831617835250505050611aef565b3073ffffffffffffffffffffffffffffffffffffffff7f00000000000000000000000000000000000000000000000000000000000000001614806116f157507f000000000000000000000000000000000000000000000000000000000000000073ffffffffffffffffffffffffffffffffffffffff166116d87f360894a13ba1a3210667c828492db98dca3e2076cc3735a920a3ca505d382bbc5473ffffffffffffffffffffffffffffffffffffffff1690565b73ffffffffffffffffffffffffffffffffffffffff1614155b15611728576040517fe07c8dba00000000000000000000000000000000000000000000000000000000815260040160405180910390fd5b565b60006108e5816112cd565b8173ffffffffffffffffffffffffffffffffffffffff166352d1902d6040518163ffffffff1660e01b8152600401602060405180830381865afa9250505080156117ba575060408051601f3d9081017fffffffffffffffffffffffffffffffffffffffffffffffffffffffffffffffe01682019092526117b79181019061245d565b60015b611808576040517f4c9c8ce300000000000000000000000000000000000000000000000000000000815273ffffffffffffffffffffffffffffffffffffffff83166004820152602401610bb3565b7f360894a13ba1a3210667c828492db98dca3e2076cc3735a920a3ca505d382bbc8114611864576040517faa1d49a400000000000000000000000000000000000000000000000000000000815260048101829052602401610bb3565b6107d68383611b85565b60405173ffffffffffffffffffffffffffffffffffffffff84811660248301528381166044830152606482018390526105fc9186918216906323b872dd906084016115dd565b60005b848110156119355760008686838181106118d3576118d36124b0565b90506020020160208101906118e89190612352565b905060008585848181106118fe576118fe6124b0565b6020029190910135915061192b905073ffffffffffffffffffffffffffffffffffffffff8a1683836115a3565b50506001016118b7565b508573ffffffffffffffffffffffffffffffffffffffff167fcb032389cc8d937b20e8a4934bb2d2a10e285541bf13d6d8d863b8d1e2f7e95d86868686866040516119849594939291906124df565b60405180910390a2505050505050565b3073ffffffffffffffffffffffffffffffffffffffff7f00000000000000000000000000000000000000000000000000000000000000001614611728576040517fe07c8dba00000000000000000000000000000000000000000000000000000000815260040160405180910390fd5b611a0b611be8565b611a13611c4f565b6108e56000826112da565b6108e57f241ecf16d79d0f8dbfb92cbc07fe17840425976cf0667f022fe9877caa831b08826112da565b60008281527f02dd7bc7dec4dceedda775e58dd541e08a116c6c53815c0bd028192f7b6268006020908152604080832073ffffffffffffffffffffffffffffffffffffffff8516845290915290205460ff166108e5576040517fe2517d3f00000000000000000000000000000000000000000000000000000000815273ffffffffffffffffffffffffffffffffffffffff8216600482015260248101839052604401610bb3565b6000611b1173ffffffffffffffffffffffffffffffffffffffff841683611c57565b90508051600014158015611b36575080806020019051810190611b34919061258c565b155b156107d6576040517f5274afe700000000000000000000000000000000000000000000000000000000815273ffffffffffffffffffffffffffffffffffffffff84166004820152602401610bb3565b611b8e82611c65565b60405173ffffffffffffffffffffffffffffffffffffffff8316907fbc7cd75a20ee27fd9adebab32041f755214dbc6bffa90cc0225b39da2e5c2d3b90600090a2805115611be0576107d68282611d34565b6108e5611db7565b7ff0c57e16840df040f15088dc2f81fe391c3923bec73e23a9662efc9c229c6a005468010000000000000000900460ff16611728576040517fd7e6bcf800000000000000000000000000000000000000000000000000000000815260040160405180910390fd5b611728611be8565b60606108c383836000611def565b8073ffffffffffffffffffffffffffffffffffffffff163b600003611cce576040517f4c9c8ce300000000000000000000000000000000000000000000000000000000815273ffffffffffffffffffffffffffffffffffffffff82166004820152602401610bb3565b7f360894a13ba1a3210667c828492db98dca3e2076cc3735a920a3ca505d382bbc80547fffffffffffffffffffffffff00000000000000000000000000000000000000001673ffffffffffffffffffffffffffffffffffffffff92909216919091179055565b60606000808473ffffffffffffffffffffffffffffffffffffffff1684604051611d5e91906125ae565b600060405180830381855af49150503d8060008114611d99576040519150601f19603f3d011682016040523d82523d6000602084013e611d9e565b606091505b5091509150611dae858383611eb2565b95945050505050565b3415611728576040517fb398979f00000000000000000000000000000000000000000000000000000000815260040160405180910390fd5b606081471015611e2d576040517fcd786059000000000000000000000000000000000000000000000000000000008152306004820152602401610bb3565b6000808573ffffffffffffffffffffffffffffffffffffffff168486604051611e5691906125ae565b60006040518083038185875af1925050503d8060008114611e93576040519150601f19603f3d011682016040523d82523d6000602084013e611e98565b606091505b5091509150611ea8868383611eb2565b9695505050505050565b606082611ec757611ec282611f41565b6108c3565b8151158015611eeb575073ffffffffffffffffffffffffffffffffffffffff84163b155b15611f3a576040517f9996b31500000000000000000000000000000000000000000000000000000000815273ffffffffffffffffffffffffffffffffffffffff85166004820152602401610bb3565b50806108c3565b805115611f515780518082602001fd5b6040517f1425ea4200000000000000000000000000000000000000000000000000000000815260040160405180910390fd5b600060208284031215611f9557600080fd5b81357fffffffff00000000000000000000000000000000000000000000000000000000811681146108c357600080fd5b600060208284031215611fd757600080fd5b5035919050565b73ffffffffffffffffffffffffffffffffffffffff811681146112d757600080fd5b6000806040838503121561201357600080fd5b82359150602083013561202581611fde565b809150509250929050565b60008083601f84011261204257600080fd5b50813567ffffffffffffffff81111561205a57600080fd5b6020830191508360208260051b850101111561207557600080fd5b9250929050565b6000806000806000806080878903121561209557600080fd5b863567ffffffffffffffff808211156120ad57600080fd5b6120b98a838b01612030565b909850965060208901359150808211156120d257600080fd5b506120df89828a01612030565b979a9699509760408101359660609091013595509350505050565b60008060006060848603121561210f57600080fd5b833561211a81611fde565b9250602084013561212a81611fde565b929592945050506040919091013590565b7f4e487b7100000000000000000000000000000000000000000000000000000000600052604160045260246000fd5b6000806040838503121561217d57600080fd5b823561218881611fde565b9150602083013567ffffffffffffffff808211156121a557600080fd5b818501915085601f8301126121b957600080fd5b8135818111156121cb576121cb61213b565b604051601f82017fffffffffffffffffffffffffffffffffffffffffffffffffffffffffffffffe0908116603f011681019083821181831017156122115761221161213b565b8160405282815288602084870101111561222a57600080fd5b8260208601602083013760006020848301015280955050505050509250929050565b600080600080600080600060a0888a03121561226757600080fd5b873561227281611fde565b9650602088013567ffffffffffffffff8082111561228f57600080fd5b61229b8b838c01612030565b909850965060408a01359150808211156122b457600080fd5b506122c18a828b01612030565b989b979a5095989597966060870135966080013595509350505050565b6000806000806000606086880312156122f657600080fd5b853567ffffffffffffffff8082111561230e57600080fd5b61231a89838a01612030565b9097509550602088013591508082111561233357600080fd5b5061234088828901612030565b96999598509660400135949350505050565b60006020828403121561236457600080fd5b81356108c381611fde565b6000806040838503121561238257600080fd5b823561238d81611fde565b9150602083013561202581611fde565b60005b838110156123b85781810151838201526020016123a0565b50506000910152565b60208152600082518060208401526123e081604085016020870161239d565b601f017fffffffffffffffffffffffffffffffffffffffffffffffffffffffffffffffe0169190910160400192915050565b60008060006060848603121561242757600080fd5b833561243281611fde565b9250602084013561244281611fde565b9150604084013561245281611fde565b809150509250925092565b60006020828403121561246f57600080fd5b5051919050565b808201808211156105b2577f4e487b7100000000000000000000000000000000000000000000000000000000600052601160045260246000fd5b7f4e487b7100000000000000000000000000000000000000000000000000000000600052603260045260246000fd5b6060808252810185905260008660808301825b8881101561252f57823561250581611fde565b73ffffffffffffffffffffffffffffffffffffffff168252602092830192909101906001016124f2565b5083810360208501528581527f07ffffffffffffffffffffffffffffffffffffffffffffffffffffffffffffff86111561256857600080fd5b8560051b915081876020830137604093909301939093525001602001949350505050565b60006020828403121561259e57600080fd5b815180151581146108c357600080fd5b600082516125c081846020870161239d565b919091019291505056fea264697066735822122075d102e7ef22f60406b8459ee12796883eb7d9c2af4a7d1e858c628332d0d40864736f6c63430008170033",
  "devdoc": {
    "errors": {
      "AccessControlBadConfirmation()": [
        {
          "details": "The caller of a function is not the expected one. NOTE: Don't confuse with {AccessControlUnauthorizedAccount}."
        }
      ],
      "AccessControlUnauthorizedAccount(address,bytes32)": [
        {
          "details": "The `account` is missing a role."
        }
      ],
      "AddressEmptyCode(address)": [
        {
          "details": "There's no code at `target` (it is not a contract)."
        }
      ],
      "AddressInsufficientBalance(address)": [
        {
          "details": "The ETH balance of the account is not enough to perform the operation."
        }
      ],
      "ERC1967InvalidImplementation(address)": [
        {
          "details": "The `implementation` of the proxy is invalid."
        }
      ],
      "ERC1967NonPayable()": [
        {
          "details": "An upgrade function sees `msg.value > 0` that may be lost."
        }
      ],
      "FailedInnerCall()": [
        {
          "details": "A call to an address target failed. The target may have reverted."
        }
      ],
      "InvalidInitialization()": [
        {
          "details": "The contract is already initialized."
        }
      ],
      "NotInitializing()": [
        {
          "details": "The contract is not initializing."
        }
      ],
      "SafeERC20FailedOperation(address)": [
        {
          "details": "An operation with an ERC20 token failed."
        }
      ],
      "UUPSUnauthorizedCallContext()": [
        {
          "details": "The call is from an unauthorized context."
        }
      ],
      "UUPSUnsupportedProxiableUUID(bytes32)": [
        {
          "details": "The storage `slot` is unsupported as a UUID."
        }
      ]
    },
    "events": {
      "Initialized(uint64)": {
        "details": "Triggered when the contract has been initialized or reinitialized."
      },
      "RoleAdminChanged(bytes32,bytes32,bytes32)": {
        "details": "Emitted when `newAdminRole` is set as ``role``'s admin role, replacing `previousAdminRole` `DEFAULT_ADMIN_ROLE` is the starting admin for all roles, despite {RoleAdminChanged} not being emitted signaling this."
      },
      "RoleGranted(bytes32,address,address)": {
        "details": "Emitted when `account` is granted `role`. `sender` is the account that originated the contract call, an admin role bearer except when using {AccessControl-_setupRole}."
      },
      "RoleRevoked(bytes32,address,address)": {
        "details": "Emitted when `account` is revoked `role`. `sender` is the account that originated the contract call:   - if using `revokeRole`, it is the admin role bearer   - if using `renounceRole`, it is the role bearer (i.e. `account`)"
      },
      "Upgraded(address)": {
        "details": "Emitted when the implementation is upgraded."
      }
    },
    "kind": "dev",
    "methods": {
      "getRoleAdmin(bytes32)": {
        "details": "Returns the admin role that controls `role`. See {grantRole} and {revokeRole}. To change a role's admin, use {_setRoleAdmin}."
      },
      "grantRole(bytes32,address)": {
        "details": "Grants `role` to `account`. If `account` had not been already granted `role`, emits a {RoleGranted} event. Requirements: - the caller must have ``role``'s admin role. May emit a {RoleGranted} event."
      },
      "hasRole(bytes32,address)": {
        "details": "Returns `true` if `account` has been granted `role`."
      },
      "proxiableUUID()": {
        "details": "Implementation of the ERC1822 {proxiableUUID} function. This returns the storage slot used by the implementation. It is used to validate the implementation's compatibility when performing an upgrade. IMPORTANT: A proxy pointing at a proxiable contract should not be considered proxiable itself, because this risks bricking a proxy that upgrades to it, by delegating to itself until out of gas. Thus it is critical that this function revert if invoked through a proxy. This is guaranteed by the `notDelegated` modifier."
      },
      "renounceRole(bytes32,address)": {
        "details": "Revokes `role` from the calling account. Roles are often managed via {grantRole} and {revokeRole}: this function's purpose is to provide a mechanism for accounts to lose their privileges if they are compromised (such as when a trusted device is misplaced). If the calling account had been revoked `role`, emits a {RoleRevoked} event. Requirements: - the caller must be `callerConfirmation`. May emit a {RoleRevoked} event."
      },
      "revokeRole(bytes32,address)": {
        "details": "Revokes `role` from `account`. If `account` had been granted `role`, emits a {RoleRevoked} event. Requirements: - the caller must have ``role``'s admin role. May emit a {RoleRevoked} event."
      },
      "send(address,address[],uint256[],uint256,uint256)": {
        "details": "suppose token is approved."
      },
      "supportsInterface(bytes4)": {
        "details": "See {IERC165-supportsInterface}."
      },
      "upgradeToAndCall(address,bytes)": {
        "custom:oz-upgrades-unsafe-allow-reachable": "delegatecall",
        "details": "Upgrade the implementation of the proxy to `newImplementation`, and subsequently execute the function call encoded in `data`. Calls {_authorizeUpgrade}. Emits an {Upgraded} event."
      }
    },
    "version": 1
  },
  "userdoc": {
    "kind": "user",
    "methods": {
      "send(address,address[],uint256[],uint256,uint256)": {
        "notice": "send"
      },
      "withdrawERC20(address,address,uint256)": {
        "notice": "Allows the owner of the contract to withdraw any ERC20 that may reside on the contract address."
      },
      "withdrawETH(address)": {
        "notice": "Allows the owner of the contract to withdraw ETH that may reside on the contract address."
      }
    },
    "version": 1
  },
  "storageLayout": {
    "storage": [
      {
        "astId": 2335,
        "contract": "src/ERC20BatchSenderV2.sol:ERC20BatchSenderV2",
        "label": "costPolicy",
        "offset": 0,
        "slot": "0",
        "type": "t_contract(ICostPolicyV2)3122"
      },
      {
        "astId": 2337,
        "contract": "src/ERC20BatchSenderV2.sol:ERC20BatchSenderV2",
        "label": "feeRecipient",
        "offset": 0,
        "slot": "1",
        "type": "t_address"
      }
    ],
    "types": {
      "t_address": {
        "encoding": "inplace",
        "label": "address",
        "numberOfBytes": "20"
      },
      "t_contract(ICostPolicyV2)3122": {
        "encoding": "inplace",
        "label": "contract ICostPolicyV2",
        "numberOfBytes": "20"
      }
    }
  }
}