{
  "address": "0xA1bcE3160B231939e017D62919c23C0f269fE214",
  "abi": [
    {
      "inputs": [
        {
          "internalType": "address",
          "name": "initialOwner",
          "type": "address"
        },
        {
          "internalType": "uint256",
          "name": "_oneTimeFee",
          "type": "uint256"
        },
        {
          "internalType": "uint256",
          "name": "_perUserFee",
          "type": "uint256"
        }
      ],
      "stateMutability": "nonpayable",
      "type": "constructor"
    },
    {
      "inputs": [
        {
          "internalType": "address",
          "name": "owner",
          "type": "address"
        }
      ],
      "name": "OwnableInvalidOwner",
      "type": "error"
    },
    {
      "inputs": [
        {
          "internalType": "address",
          "name": "account",
          "type": "address"
        }
      ],
      "name": "OwnableUnauthorizedAccount",
      "type": "error"
    },
    {
      "anonymous": false,
      "inputs": [
        {
          "indexed": false,
          "internalType": "uint256",
          "name": "_oneTimeFee",
          "type": "uint256"
        }
      ],
      "name": "OneTimeFeeUpdated",
      "type": "event"
    },
    {
      "anonymous": false,
      "inputs": [
        {
          "indexed": true,
          "internalType": "address",
          "name": "previousOwner",
          "type": "address"
        },
        {
          "indexed": true,
          "internalType": "address",
          "name": "newOwner",
          "type": "address"
        }
      ],
      "name": "OwnershipTransferStarted",
      "type": "event"
    },
    {
      "anonymous": false,
      "inputs": [
        {
          "indexed": true,
          "internalType": "address",
          "name": "previousOwner",
          "type": "address"
        },
        {
          "indexed": true,
          "internalType": "address",
          "name": "newOwner",
          "type": "address"
        }
      ],
      "name": "OwnershipTransferred",
      "type": "event"
    },
    {
      "anonymous": false,
      "inputs": [
        {
          "indexed": false,
          "internalType": "uint256",
          "name": "_perUserFee",
          "type": "uint256"
        }
      ],
      "name": "PerUserFeeUpdated",
      "type": "event"
    },
    {
      "inputs": [],
      "name": "acceptOwnership",
      "outputs": [],
      "stateMutability": "nonpayable",
      "type": "function"
    },
    {
      "inputs": [
        {
          "internalType": "address",
          "name": "sender",
          "type": "address"
        },
        {
          "internalType": "uint256",
          "name": "userCount",
          "type": "uint256"
        },
        {
          "internalType": "uint256",
          "name": "totalAmount",
          "type": "uint256"
        },
        {
          "internalType": "uint256",
          "name": "typeId",
          "type": "uint256"
        }
      ],
      "name": "calculateCost",
      "outputs": [
        {
          "internalType": "uint256",
          "name": "cost",
          "type": "uint256"
        }
      ],
      "stateMutability": "view",
      "type": "function"
    },
    {
      "inputs": [],
      "name": "oneTimeFee",
      "outputs": [
        {
          "internalType": "uint256",
          "name": "",
          "type": "uint256"
        }
      ],
      "stateMutability": "view",
      "type": "function"
    },
    {
      "inputs": [],
      "name": "owner",
      "outputs": [
        {
          "internalType": "address",
          "name": "",
          "type": "address"
        }
      ],
      "stateMutability": "view",
      "type": "function"
    },
    {
      "inputs": [],
      "name": "pendingOwner",
      "outputs": [
        {
          "internalType": "address",
          "name": "",
          "type": "address"
        }
      ],
      "stateMutability": "view",
      "type": "function"
    },
    {
      "inputs": [],
      "name": "perUserFee",
      "outputs": [
        {
          "internalType": "uint256",
          "name": "",
          "type": "uint256"
        }
      ],
      "stateMutability": "view",
      "type": "function"
    },
    {
      "inputs": [],
      "name": "renounceOwnership",
      "outputs": [],
      "stateMutability": "nonpayable",
      "type": "function"
    },
    {
      "inputs": [
        {
          "internalType": "uint256",
          "name": "_oneTimeFee",
          "type": "uint256"
        }
      ],
      "name": "setOneTimeFee",
      "outputs": [],
      "stateMutability": "nonpayable",
      "type": "function"
    },
    {
      "inputs": [
        {
          "internalType": "uint256",
          "name": "_perUserFee",
          "type": "uint256"
        }
      ],
      "name": "setPerUserFee",
      "outputs": [],
      "stateMutability": "nonpayable",
      "type": "function"
    },
    {
      "inputs": [
        {
          "internalType": "address",
          "name": "newOwner",
          "type": "address"
        }
      ],
      "name": "transferOwnership",
      "outputs": [],
      "stateMutability": "nonpayable",
      "type": "function"
    }
  ],
  "transactionHash": "0xdb12bf7bf65fc925a34356f2dc41d9d0f800338c8f681aeecdd6f79de6a0c373",
  "args": [
    "0x189027e3C77b3a92fd01bF7CC4E6a86E77F5034E",
    0,
    0
  ],
  "numDeployments": 1,
  "solcInputHash": "2790c97dd8af3c87b3d964f714f5e830",
  "bytecode": "0x608060405234801561001057600080fd5b5060405161065c38038061065c83398101604081905261002f916100e3565b826001600160a01b03811661005e57604051631e4fbdf760e01b81526000600482015260240160405180910390fd5b61006781610077565b5060029190915560035550610126565b600180546001600160a01b031916905561009081610093565b50565b600080546001600160a01b038381166001600160a01b0319831681178455604051919092169283917f8be0079c531659141344cd1fd0a4f28419497f9722a3daafe3b4186f6b6457e09190a35050565b6000806000606084860312156100f857600080fd5b83516001600160a01b038116811461010f57600080fd5b602085015160409095015190969495509392505050565b610527806101356000396000f3fe608060405234801561001057600080fd5b50600436106100be5760003560e01c80638da5cb5b11610076578063e30c39781161005b578063e30c39781461014f578063f2fde38b14610160578063f8245bca1461017357600080fd5b80638da5cb5b14610117578063e1ba24261461013c57600080fd5b8063715018a6116100a7578063715018a6146100f2578063748ddfc0146100fc57806379ba50971461010f57600080fd5b80631c3004f9146100c35780635288d945146100df575b600080fd5b6100cc60035481565b6040519081526020015b60405180910390f35b6100cc6100ed366004610439565b61017c565b6100fa61021b565b005b6100fa61010a366004610472565b61022f565b6100fa610273565b6000546001600160a01b03165b6040516001600160a01b0390911681526020016100d6565b6100fa61014a366004610472565b6102b7565b6001546001600160a01b0316610124565b6100fa61016e36600461048b565b6102f4565b6100cc60025481565b60008160000361018f5750600254610213565b816001036101ac57836003546101a591906104ad565b9050610213565b6040517f08c379a000000000000000000000000000000000000000000000000000000000815260206004820152600e60248201527f496e76616c69642074797065496400000000000000000000000000000000000060448201526064015b60405180910390fd5b949350505050565b610223610372565b61022d600061039f565b565b610237610372565b60038190556040518181527fe4e9d0c42d8ff6bd519be0e8fd05d3d4748e8652fe9de147829fcf629ecb036e906020015b60405180910390a150565b60015433906001600160a01b031681146102ab5760405163118cdaa760e01b81526001600160a01b038216600482015260240161020a565b6102b48161039f565b50565b6102bf610372565b60028190556040518181527f65e483827ee434bd81785823d46bdf2d3ce181aa289de8108eeeee22b207f50f90602001610268565b6102fc610372565b600180546001600160a01b03831673ffffffffffffffffffffffffffffffffffffffff19909116811790915561033a6000546001600160a01b031690565b6001600160a01b03167f38d16b8cac22d99fc7c124b9cd0de2d3fa1faef420bfe791d8c362d765e2270060405160405180910390a350565b6000546001600160a01b0316331461022d5760405163118cdaa760e01b815233600482015260240161020a565b6001805473ffffffffffffffffffffffffffffffffffffffff191690556102b481600080546001600160a01b0383811673ffffffffffffffffffffffffffffffffffffffff19831681178455604051919092169283917f8be0079c531659141344cd1fd0a4f28419497f9722a3daafe3b4186f6b6457e09190a35050565b80356001600160a01b038116811461043457600080fd5b919050565b6000806000806080858703121561044f57600080fd5b6104588561041d565b966020860135965060408601359560600135945092505050565b60006020828403121561048457600080fd5b5035919050565b60006020828403121561049d57600080fd5b6104a68261041d565b9392505050565b80820281158282048414176104eb577f4e487b7100000000000000000000000000000000000000000000000000000000600052601160045260246000fd5b9291505056fea2646970667358221220e7a90c9d53aec8a24d471b2f07b1ccb9a788f50d234870cb192191997972b7a864736f6c63430008170033",
  "devdoc": {
    "errors": {
      "OwnableInvalidOwner(address)": [
        {
          "details": "The owner is not a valid owner account. (eg. `address(0)`)"
        }
      ],
      "OwnableUnauthorizedAccount(address)": [
        {
          "details": "The caller account is not authorized to perform an operation."
        }
      ]
    },
    "kind": "dev",
    "methods": {
      "acceptOwnership()": {
        "details": "The new owner accepts the ownership transfer."
      },
      "owner()": {
        "details": "Returns the address of the current owner."
      },
      "pendingOwner()": {
        "details": "Returns the address of the pending owner."
      },
      "renounceOwnership()": {
        "details": "Leaves the contract without owner. It will not be possible to call `onlyOwner` functions. Can only be called by the current owner. NOTE: Renouncing ownership will leave the contract without an owner, thereby disabling any functionality that is only available to the owner."
      },
      "transferOwnership(address)": {
        "details": "Starts the ownership transfer of the contract to a new account. Replaces the pending transfer if there is one. Can only be called by the current owner."
      }
    },
    "version": 1
  },
  "userdoc": {
    "kind": "user",
    "methods": {},
    "version": 1
  },
  "storageLayout": {
    "storage": [
      {
        "astId": 968,
        "contract": "src/BasicCostPolicy.sol:BasicCostPolicy",
        "label": "_owner",
        "offset": 0,
        "slot": "0",
        "type": "t_address"
      },
      {
        "astId": 1116,
        "contract": "src/BasicCostPolicy.sol:BasicCostPolicy",
        "label": "_pendingOwner",
        "offset": 0,
        "slot": "1",
        "type": "t_address"
      },
      {
        "astId": 2331,
        "contract": "src/BasicCostPolicy.sol:BasicCostPolicy",
        "label": "oneTimeFee",
        "offset": 0,
        "slot": "2",
        "type": "t_uint256"
      },
      {
        "astId": 2333,
        "contract": "src/BasicCostPolicy.sol:BasicCostPolicy",
        "label": "perUserFee",
        "offset": 0,
        "slot": "3",
        "type": "t_uint256"
      }
    ],
    "types": {
      "t_address": {
        "encoding": "inplace",
        "label": "address",
        "numberOfBytes": "20"
      },
      "t_uint256": {
        "encoding": "inplace",
        "label": "uint256",
        "numberOfBytes": "32"
      }
    }
  }
}