{
  "address": "0xDA7e80252E6F9C458DbE261E494122E2CD01affA",
  "abi": [
    {
      "inputs": [
        {
          "internalType": "address",
          "name": "initialOwner",
          "type": "address"
        },
        {
          "internalType": "uint256",
          "name": "_oneTimeFee",
          "type": "uint256"
        },
        {
          "internalType": "uint256",
          "name": "_perUserFee",
          "type": "uint256"
        },
        {
          "internalType": "uint256",
          "name": "_minUserCount",
          "type": "uint256"
        }
      ],
      "stateMutability": "nonpayable",
      "type": "constructor"
    },
    {
      "inputs": [
        {
          "internalType": "address",
          "name": "owner",
          "type": "address"
        }
      ],
      "name": "OwnableInvalidOwner",
      "type": "error"
    },
    {
      "inputs": [
        {
          "internalType": "address",
          "name": "account",
          "type": "address"
        }
      ],
      "name": "OwnableUnauthorizedAccount",
      "type": "error"
    },
    {
      "anonymous": false,
      "inputs": [
        {
          "indexed": false,
          "internalType": "uint256",
          "name": "_maxFreeUserCount",
          "type": "uint256"
        }
      ],
      "name": "MaxFreeUserCountUpdated",
      "type": "event"
    },
    {
      "anonymous": false,
      "inputs": [
        {
          "indexed": false,
          "internalType": "uint256",
          "name": "_oneTimeFee",
          "type": "uint256"
        }
      ],
      "name": "OneTimeFeeUpdated",
      "type": "event"
    },
    {
      "anonymous": false,
      "inputs": [
        {
          "indexed": true,
          "internalType": "address",
          "name": "previousOwner",
          "type": "address"
        },
        {
          "indexed": true,
          "internalType": "address",
          "name": "newOwner",
          "type": "address"
        }
      ],
      "name": "OwnershipTransferStarted",
      "type": "event"
    },
    {
      "anonymous": false,
      "inputs": [
        {
          "indexed": true,
          "internalType": "address",
          "name": "previousOwner",
          "type": "address"
        },
        {
          "indexed": true,
          "internalType": "address",
          "name": "newOwner",
          "type": "address"
        }
      ],
      "name": "OwnershipTransferred",
      "type": "event"
    },
    {
      "anonymous": false,
      "inputs": [
        {
          "indexed": false,
          "internalType": "uint256",
          "name": "_perUserFee",
          "type": "uint256"
        }
      ],
      "name": "PerUserFeeUpdated",
      "type": "event"
    },
    {
      "inputs": [],
      "name": "acceptOwnership",
      "outputs": [],
      "stateMutability": "nonpayable",
      "type": "function"
    },
    {
      "inputs": [
        {
          "internalType": "address",
          "name": "sender",
          "type": "address"
        },
        {
          "internalType": "uint256",
          "name": "userCount",
          "type": "uint256"
        },
        {
          "internalType": "uint256",
          "name": "totalAmount",
          "type": "uint256"
        },
        {
          "internalType": "uint256",
          "name": "typeId",
          "type": "uint256"
        }
      ],
      "name": "calculateCost",
      "outputs": [
        {
          "internalType": "uint256",
          "name": "cost",
          "type": "uint256"
        }
      ],
      "stateMutability": "view",
      "type": "function"
    },
    {
      "inputs": [],
      "name": "maxFreeUserCount",
      "outputs": [
        {
          "internalType": "uint256",
          "name": "",
          "type": "uint256"
        }
      ],
      "stateMutability": "view",
      "type": "function"
    },
    {
      "inputs": [],
      "name": "oneTimeFee",
      "outputs": [
        {
          "internalType": "uint256",
          "name": "",
          "type": "uint256"
        }
      ],
      "stateMutability": "view",
      "type": "function"
    },
    {
      "inputs": [],
      "name": "owner",
      "outputs": [
        {
          "internalType": "address",
          "name": "",
          "type": "address"
        }
      ],
      "stateMutability": "view",
      "type": "function"
    },
    {
      "inputs": [],
      "name": "pendingOwner",
      "outputs": [
        {
          "internalType": "address",
          "name": "",
          "type": "address"
        }
      ],
      "stateMutability": "view",
      "type": "function"
    },
    {
      "inputs": [],
      "name": "perUserFee",
      "outputs": [
        {
          "internalType": "uint256",
          "name": "",
          "type": "uint256"
        }
      ],
      "stateMutability": "view",
      "type": "function"
    },
    {
      "inputs": [],
      "name": "renounceOwnership",
      "outputs": [],
      "stateMutability": "nonpayable",
      "type": "function"
    },
    {
      "inputs": [
        {
          "internalType": "uint256",
          "name": "_maxFreeUserCount",
          "type": "uint256"
        }
      ],
      "name": "setMaxFreeUserCount",
      "outputs": [],
      "stateMutability": "nonpayable",
      "type": "function"
    },
    {
      "inputs": [
        {
          "internalType": "uint256",
          "name": "_oneTimeFee",
          "type": "uint256"
        }
      ],
      "name": "setOneTimeFee",
      "outputs": [],
      "stateMutability": "nonpayable",
      "type": "function"
    },
    {
      "inputs": [
        {
          "internalType": "uint256",
          "name": "_perUserFee",
          "type": "uint256"
        }
      ],
      "name": "setPerUserFee",
      "outputs": [],
      "stateMutability": "nonpayable",
      "type": "function"
    },
    {
      "inputs": [
        {
          "internalType": "address",
          "name": "newOwner",
          "type": "address"
        }
      ],
      "name": "transferOwnership",
      "outputs": [],
      "stateMutability": "nonpayable",
      "type": "function"
    }
  ],
  "transactionHash": "0xe920f562d5fb8c49c3f1f93e16be9f017d2adbbbec63c2778bc153bb8a562e5e",
  "args": [
    "0xB5F0Af0103C723BB2FE96791634F2D5D6e92D775",
    "100000000000000000000",
    "100000000000000000000",
    10
  ],
  "numDeployments": 1,
  "solcInputHash": "b4520beb7eb94bdfadc92c6eaf875bb0",
  "bytecode": "0x608060405234801561001057600080fd5b506040516107c93803806107c983398101604081905261002f916100e6565b836001600160a01b03811661005e57604051631e4fbdf760e01b81526000600482015260240160405180910390fd5b6100678161007a565b5060029290925560035560045550610131565b600180546001600160a01b031916905561009381610096565b50565b600080546001600160a01b038381166001600160a01b0319831681178455604051919092169283917f8be0079c531659141344cd1fd0a4f28419497f9722a3daafe3b4186f6b6457e09190a35050565b600080600080608085870312156100fc57600080fd5b84516001600160a01b038116811461011357600080fd5b60208601516040870151606090970151919890975090945092505050565b610689806101406000396000f3fe608060405234801561001057600080fd5b50600436106100d45760003560e01c80638da5cb5b11610081578063e30c39781161005b578063e30c39781461019b578063f2fde38b146101b9578063f8245bca146101cc57600080fd5b80638da5cb5b14610136578063be0a843314610175578063e1ba24261461018857600080fd5b8063715018a6116100b2578063715018a614610111578063748ddfc01461011b57806379ba50971461012e57600080fd5b80631c3004f9146100d95780635288d945146100f55780636702106a14610108575b600080fd5b6100e260035481565b6040519081526020015b60405180910390f35b6100e261010336600461059b565b6101d5565b6100e260045481565b610119610285565b005b6101196101293660046105d4565b610299565b6101196102dd565b60005473ffffffffffffffffffffffffffffffffffffffff165b60405173ffffffffffffffffffffffffffffffffffffffff90911681526020016100ec565b6101196101833660046105d4565b610354565b6101196101963660046105d4565b610391565b60015473ffffffffffffffffffffffffffffffffffffffff16610150565b6101196101c73660046105ed565b6103ce565b6100e260025481565b600060045484116101e85750600061027d565b816000036101f9575060025461027d565b81600103610216578360035461020f919061060f565b905061027d565b6040517f08c379a000000000000000000000000000000000000000000000000000000000815260206004820152600e60248201527f496e76616c69642074797065496400000000000000000000000000000000000060448201526064015b60405180910390fd5b949350505050565b61028d61047e565b61029760006104d1565b565b6102a161047e565b60038190556040518181527fe4e9d0c42d8ff6bd519be0e8fd05d3d4748e8652fe9de147829fcf629ecb036e906020015b60405180910390a150565b600154339073ffffffffffffffffffffffffffffffffffffffff168114610348576040517f118cdaa700000000000000000000000000000000000000000000000000000000815273ffffffffffffffffffffffffffffffffffffffff82166004820152602401610274565b610351816104d1565b50565b61035c61047e565b60048190556040518181527f663296b7f6bffffd2fe8b1a20ba38b843659facf6b429fa95b92dd589ed552b6906020016102d2565b61039961047e565b60028190556040518181527f65e483827ee434bd81785823d46bdf2d3ce181aa289de8108eeeee22b207f50f906020016102d2565b6103d661047e565b6001805473ffffffffffffffffffffffffffffffffffffffff83167fffffffffffffffffffffffff0000000000000000000000000000000000000000909116811790915561043960005473ffffffffffffffffffffffffffffffffffffffff1690565b73ffffffffffffffffffffffffffffffffffffffff167f38d16b8cac22d99fc7c124b9cd0de2d3fa1faef420bfe791d8c362d765e2270060405160405180910390a350565b60005473ffffffffffffffffffffffffffffffffffffffff163314610297576040517f118cdaa7000000000000000000000000000000000000000000000000000000008152336004820152602401610274565b600180547fffffffffffffffffffffffff0000000000000000000000000000000000000000169055610351816000805473ffffffffffffffffffffffffffffffffffffffff8381167fffffffffffffffffffffffff0000000000000000000000000000000000000000831681178455604051919092169283917f8be0079c531659141344cd1fd0a4f28419497f9722a3daafe3b4186f6b6457e09190a35050565b803573ffffffffffffffffffffffffffffffffffffffff8116811461059657600080fd5b919050565b600080600080608085870312156105b157600080fd5b6105ba85610572565b966020860135965060408601359560600135945092505050565b6000602082840312156105e657600080fd5b5035919050565b6000602082840312156105ff57600080fd5b61060882610572565b9392505050565b808202811582820484141761064d577f4e487b7100000000000000000000000000000000000000000000000000000000600052601160045260246000fd5b9291505056fea26469706673582212200e3a014d6765669d57ecd61a739cbc63a3bfaa88c70a184bb5f16476845f0eda64736f6c63430008170033",
  "devdoc": {
    "errors": {
      "OwnableInvalidOwner(address)": [
        {
          "details": "The owner is not a valid owner account. (eg. `address(0)`)"
        }
      ],
      "OwnableUnauthorizedAccount(address)": [
        {
          "details": "The caller account is not authorized to perform an operation."
        }
      ]
    },
    "kind": "dev",
    "methods": {
      "acceptOwnership()": {
        "details": "The new owner accepts the ownership transfer."
      },
      "owner()": {
        "details": "Returns the address of the current owner."
      },
      "pendingOwner()": {
        "details": "Returns the address of the pending owner."
      },
      "renounceOwnership()": {
        "details": "Leaves the contract without owner. It will not be possible to call `onlyOwner` functions. Can only be called by the current owner. NOTE: Renouncing ownership will leave the contract without an owner, thereby disabling any functionality that is only available to the owner."
      },
      "transferOwnership(address)": {
        "details": "Starts the ownership transfer of the contract to a new account. Replaces the pending transfer if there is one. Can only be called by the current owner."
      }
    },
    "version": 1
  },
  "userdoc": {
    "kind": "user",
    "methods": {},
    "version": 1
  },
  "storageLayout": {
    "storage": [
      {
        "astId": 968,
        "contract": "src/BasicCostPolicy.sol:BasicCostPolicy",
        "label": "_owner",
        "offset": 0,
        "slot": "0",
        "type": "t_address"
      },
      {
        "astId": 1116,
        "contract": "src/BasicCostPolicy.sol:BasicCostPolicy",
        "label": "_pendingOwner",
        "offset": 0,
        "slot": "1",
        "type": "t_address"
      },
      {
        "astId": 3009,
        "contract": "src/BasicCostPolicy.sol:BasicCostPolicy",
        "label": "oneTimeFee",
        "offset": 0,
        "slot": "2",
        "type": "t_uint256"
      },
      {
        "astId": 3011,
        "contract": "src/BasicCostPolicy.sol:BasicCostPolicy",
        "label": "perUserFee",
        "offset": 0,
        "slot": "3",
        "type": "t_uint256"
      },
      {
        "astId": 3013,
        "contract": "src/BasicCostPolicy.sol:BasicCostPolicy",
        "label": "maxFreeUserCount",
        "offset": 0,
        "slot": "4",
        "type": "t_uint256"
      }
    ],
    "types": {
      "t_address": {
        "encoding": "inplace",
        "label": "address",
        "numberOfBytes": "20"
      },
      "t_uint256": {
        "encoding": "inplace",
        "label": "uint256",
        "numberOfBytes": "32"
      }
    }
  }
}