{
  "address": "0x9F8A97c577c69995db4B60a60a20aBA45dE6403e",
  "abi": [
    {
      "inputs": [
        {
          "internalType": "address",
          "name": "initialOwner",
          "type": "address"
        },
        {
          "internalType": "uint256",
          "name": "_oneTimeFee",
          "type": "uint256"
        },
        {
          "internalType": "uint256",
          "name": "_perUserFee",
          "type": "uint256"
        },
        {
          "internalType": "uint256",
          "name": "_minUserCount",
          "type": "uint256"
        }
      ],
      "stateMutability": "nonpayable",
      "type": "constructor"
    },
    {
      "inputs": [
        {
          "internalType": "address",
          "name": "owner",
          "type": "address"
        }
      ],
      "name": "OwnableInvalidOwner",
      "type": "error"
    },
    {
      "inputs": [
        {
          "internalType": "address",
          "name": "account",
          "type": "address"
        }
      ],
      "name": "OwnableUnauthorizedAccount",
      "type": "error"
    },
    {
      "anonymous": false,
      "inputs": [
        {
          "indexed": false,
          "internalType": "uint256",
          "name": "_maxFreeUserCount",
          "type": "uint256"
        }
      ],
      "name": "MaxFreeUserCountUpdated",
      "type": "event"
    },
    {
      "anonymous": false,
      "inputs": [
        {
          "indexed": false,
          "internalType": "uint256",
          "name": "_oneTimeFee",
          "type": "uint256"
        }
      ],
      "name": "OneTimeFeeUpdated",
      "type": "event"
    },
    {
      "anonymous": false,
      "inputs": [
        {
          "indexed": true,
          "internalType": "address",
          "name": "previousOwner",
          "type": "address"
        },
        {
          "indexed": true,
          "internalType": "address",
          "name": "newOwner",
          "type": "address"
        }
      ],
      "name": "OwnershipTransferStarted",
      "type": "event"
    },
    {
      "anonymous": false,
      "inputs": [
        {
          "indexed": true,
          "internalType": "address",
          "name": "previousOwner",
          "type": "address"
        },
        {
          "indexed": true,
          "internalType": "address",
          "name": "newOwner",
          "type": "address"
        }
      ],
      "name": "OwnershipTransferred",
      "type": "event"
    },
    {
      "anonymous": false,
      "inputs": [
        {
          "indexed": false,
          "internalType": "uint256",
          "name": "_perUserFee",
          "type": "uint256"
        }
      ],
      "name": "PerUserFeeUpdated",
      "type": "event"
    },
    {
      "anonymous": false,
      "inputs": [
        {
          "indexed": false,
          "internalType": "address",
          "name": "user",
          "type": "address"
        },
        {
          "indexed": false,
          "internalType": "bool",
          "name": "status",
          "type": "bool"
        }
      ],
      "name": "WhitelistUpdated",
      "type": "event"
    },
    {
      "inputs": [],
      "name": "acceptOwnership",
      "outputs": [],
      "stateMutability": "nonpayable",
      "type": "function"
    },
    {
      "inputs": [
        {
          "internalType": "address",
          "name": "user",
          "type": "address"
        }
      ],
      "name": "addWhitelist",
      "outputs": [],
      "stateMutability": "nonpayable",
      "type": "function"
    },
    {
      "inputs": [
        {
          "internalType": "address",
          "name": "token",
          "type": "address"
        },
        {
          "internalType": "address",
          "name": "sender",
          "type": "address"
        },
        {
          "internalType": "uint256",
          "name": "userCount",
          "type": "uint256"
        },
        {
          "internalType": "uint256",
          "name": "totalAmount",
          "type": "uint256"
        },
        {
          "internalType": "uint256",
          "name": "typeId",
          "type": "uint256"
        }
      ],
      "name": "calculateCost",
      "outputs": [
        {
          "internalType": "uint256",
          "name": "cost",
          "type": "uint256"
        }
      ],
      "stateMutability": "view",
      "type": "function"
    },
    {
      "inputs": [],
      "name": "maxFreeUserCount",
      "outputs": [
        {
          "internalType": "uint256",
          "name": "",
          "type": "uint256"
        }
      ],
      "stateMutability": "view",
      "type": "function"
    },
    {
      "inputs": [],
      "name": "oneTimeFee",
      "outputs": [
        {
          "internalType": "uint256",
          "name": "",
          "type": "uint256"
        }
      ],
      "stateMutability": "view",
      "type": "function"
    },
    {
      "inputs": [],
      "name": "owner",
      "outputs": [
        {
          "internalType": "address",
          "name": "",
          "type": "address"
        }
      ],
      "stateMutability": "view",
      "type": "function"
    },
    {
      "inputs": [],
      "name": "pendingOwner",
      "outputs": [
        {
          "internalType": "address",
          "name": "",
          "type": "address"
        }
      ],
      "stateMutability": "view",
      "type": "function"
    },
    {
      "inputs": [],
      "name": "perUserFee",
      "outputs": [
        {
          "internalType": "uint256",
          "name": "",
          "type": "uint256"
        }
      ],
      "stateMutability": "view",
      "type": "function"
    },
    {
      "inputs": [
        {
          "internalType": "address",
          "name": "user",
          "type": "address"
        }
      ],
      "name": "removeWhitelist",
      "outputs": [],
      "stateMutability": "nonpayable",
      "type": "function"
    },
    {
      "inputs": [],
      "name": "renounceOwnership",
      "outputs": [],
      "stateMutability": "nonpayable",
      "type": "function"
    },
    {
      "inputs": [
        {
          "internalType": "uint256",
          "name": "_maxFreeUserCount",
          "type": "uint256"
        }
      ],
      "name": "setMaxFreeUserCount",
      "outputs": [],
      "stateMutability": "nonpayable",
      "type": "function"
    },
    {
      "inputs": [
        {
          "internalType": "uint256",
          "name": "_oneTimeFee",
          "type": "uint256"
        }
      ],
      "name": "setOneTimeFee",
      "outputs": [],
      "stateMutability": "nonpayable",
      "type": "function"
    },
    {
      "inputs": [
        {
          "internalType": "uint256",
          "name": "_perUserFee",
          "type": "uint256"
        }
      ],
      "name": "setPerUserFee",
      "outputs": [],
      "stateMutability": "nonpayable",
      "type": "function"
    },
    {
      "inputs": [
        {
          "internalType": "address",
          "name": "newOwner",
          "type": "address"
        }
      ],
      "name": "transferOwnership",
      "outputs": [],
      "stateMutability": "nonpayable",
      "type": "function"
    },
    {
      "inputs": [
        {
          "internalType": "address",
          "name": "",
          "type": "address"
        }
      ],
      "name": "whitelist",
      "outputs": [
        {
          "internalType": "bool",
          "name": "",
          "type": "bool"
        }
      ],
      "stateMutability": "view",
      "type": "function"
    }
  ],
  "transactionHash": "0xcdd6b3824ce2c3185b2407057afce377ed08e4ef90346f8094097815538a2613",
  "args": [
    "0x189027e3C77b3a92fd01bF7CC4E6a86E77F5034E",
    "80000000000000000",
    "80000000000000000",
    10
  ],
  "numDeployments": 1,
  "solcInputHash": "d2367b43333a14eb08e02d5e74e9feb4",
  "bytecode": "0x608060405234801561001057600080fd5b506040516109a63803806109a683398101604081905261002f916100e6565b836001600160a01b03811661005e57604051631e4fbdf760e01b81526000600482015260240160405180910390fd5b6100678161007a565b5060029290925560035560045550610131565b600180546001600160a01b031916905561009381610096565b50565b600080546001600160a01b038381166001600160a01b0319831681178455604051919092169283917f8be0079c531659141344cd1fd0a4f28419497f9722a3daafe3b4186f6b6457e09190a35050565b600080600080608085870312156100fc57600080fd5b84516001600160a01b038116811461011357600080fd5b60208601516040870151606090970151919890975090945092505050565b610866806101406000396000f3fe608060405234801561001057600080fd5b50600436106100f55760003560e01c8063937b1e1a11610097578063e30c397811610066578063e30c397814610202578063f2fde38b14610220578063f80f5dd514610233578063f8245bca1461024657600080fd5b8063937b1e1a146101965780639b19251a146101a9578063be0a8433146101dc578063e1ba2426146101ef57600080fd5b8063748ddfc0116100d3578063748ddfc01461012957806378c8cda71461013c57806379ba50971461014f5780638da5cb5b1461015757600080fd5b80631c3004f9146100fa5780636702106a14610116578063715018a61461011f575b600080fd5b61010360035481565b6040519081526020015b60405180910390f35b61010360045481565b61012761024f565b005b61012761013736600461073b565b610263565b61012761014a36600461077d565b6102a7565b610127610331565b60005473ffffffffffffffffffffffffffffffffffffffff165b60405173ffffffffffffffffffffffffffffffffffffffff909116815260200161010d565b6101036101a436600461079f565b6103ad565b6101cc6101b736600461077d565b60056020526000908152604090205460ff1681565b604051901515815260200161010d565b6101276101ea36600461073b565b61048f565b6101276101fd36600461073b565b6104cc565b60015473ffffffffffffffffffffffffffffffffffffffff16610171565b61012761022e36600461077d565b610509565b61012761024136600461077d565b6105b9565b61010360025481565b610257610647565b610261600061069a565b565b61026b610647565b60038190556040518181527fe4e9d0c42d8ff6bd519be0e8fd05d3d4748e8652fe9de147829fcf629ecb036e906020015b60405180910390a150565b6102af610647565b73ffffffffffffffffffffffffffffffffffffffff8116600081815260056020908152604080832080547fffffffffffffffffffffffffffffffffffffffffffffffffffffffffffffff001690558051938452908301919091527ff93f9a76c1bf3444d22400a00cb9fe990e6abe9dbb333fda48859cfee864543d910161029c565b600154339073ffffffffffffffffffffffffffffffffffffffff1681146103a1576040517f118cdaa700000000000000000000000000000000000000000000000000000000815273ffffffffffffffffffffffffffffffffffffffff821660048201526024015b60405180910390fd5b6103aa8161069a565b50565b600060045484116103c057506000610486565b73ffffffffffffffffffffffffffffffffffffffff851660009081526005602052604090205460ff16156103f657506000610486565b816000036104075750600254610486565b81600103610424578360035461041d91906107ec565b9050610486565b6040517f08c379a000000000000000000000000000000000000000000000000000000000815260206004820152600e60248201527f496e76616c6964207479706549640000000000000000000000000000000000006044820152606401610398565b95945050505050565b610497610647565b60048190556040518181527f663296b7f6bffffd2fe8b1a20ba38b843659facf6b429fa95b92dd589ed552b69060200161029c565b6104d4610647565b60028190556040518181527f65e483827ee434bd81785823d46bdf2d3ce181aa289de8108eeeee22b207f50f9060200161029c565b610511610647565b6001805473ffffffffffffffffffffffffffffffffffffffff83167fffffffffffffffffffffffff0000000000000000000000000000000000000000909116811790915561057460005473ffffffffffffffffffffffffffffffffffffffff1690565b73ffffffffffffffffffffffffffffffffffffffff167f38d16b8cac22d99fc7c124b9cd0de2d3fa1faef420bfe791d8c362d765e2270060405160405180910390a350565b6105c1610647565b73ffffffffffffffffffffffffffffffffffffffff811660008181526005602090815260409182902080547fffffffffffffffffffffffffffffffffffffffffffffffffffffffffffffff001660019081179091558251938452908301527ff93f9a76c1bf3444d22400a00cb9fe990e6abe9dbb333fda48859cfee864543d910161029c565b60005473ffffffffffffffffffffffffffffffffffffffff163314610261576040517f118cdaa7000000000000000000000000000000000000000000000000000000008152336004820152602401610398565b600180547fffffffffffffffffffffffff00000000000000000000000000000000000000001690556103aa816000805473ffffffffffffffffffffffffffffffffffffffff8381167fffffffffffffffffffffffff0000000000000000000000000000000000000000831681178455604051919092169283917f8be0079c531659141344cd1fd0a4f28419497f9722a3daafe3b4186f6b6457e09190a35050565b60006020828403121561074d57600080fd5b5035919050565b803573ffffffffffffffffffffffffffffffffffffffff8116811461077857600080fd5b919050565b60006020828403121561078f57600080fd5b61079882610754565b9392505050565b600080600080600060a086880312156107b757600080fd5b6107c086610754565b94506107ce60208701610754565b94979496505050506040830135926060810135926080909101359150565b808202811582820484141761082a577f4e487b7100000000000000000000000000000000000000000000000000000000600052601160045260246000fd5b9291505056fea26469706673582212207c7f6a76bc86e756ddd648a3807f189f0cd8f16fe541f32a35126d01f1c11e1264736f6c63430008170033",
  "devdoc": {
    "errors": {
      "OwnableInvalidOwner(address)": [
        {
          "details": "The owner is not a valid owner account. (eg. `address(0)`)"
        }
      ],
      "OwnableUnauthorizedAccount(address)": [
        {
          "details": "The caller account is not authorized to perform an operation."
        }
      ]
    },
    "kind": "dev",
    "methods": {
      "acceptOwnership()": {
        "details": "The new owner accepts the ownership transfer."
      },
      "owner()": {
        "details": "Returns the address of the current owner."
      },
      "pendingOwner()": {
        "details": "Returns the address of the pending owner."
      },
      "renounceOwnership()": {
        "details": "Leaves the contract without owner. It will not be possible to call `onlyOwner` functions. Can only be called by the current owner. NOTE: Renouncing ownership will leave the contract without an owner, thereby disabling any functionality that is only available to the owner."
      },
      "transferOwnership(address)": {
        "details": "Starts the ownership transfer of the contract to a new account. Replaces the pending transfer if there is one. Can only be called by the current owner."
      }
    },
    "version": 1
  },
  "userdoc": {
    "kind": "user",
    "methods": {},
    "version": 1
  },
  "storageLayout": {
    "storage": [
      {
        "astId": 968,
        "contract": "src/WhitelistCostPolicy.sol:WhitelistCostPolicy",
        "label": "_owner",
        "offset": 0,
        "slot": "0",
        "type": "t_address"
      },
      {
        "astId": 1116,
        "contract": "src/WhitelistCostPolicy.sol:WhitelistCostPolicy",
        "label": "_pendingOwner",
        "offset": 0,
        "slot": "1",
        "type": "t_address"
      },
      {
        "astId": 2893,
        "contract": "src/WhitelistCostPolicy.sol:WhitelistCostPolicy",
        "label": "oneTimeFee",
        "offset": 0,
        "slot": "2",
        "type": "t_uint256"
      },
      {
        "astId": 2895,
        "contract": "src/WhitelistCostPolicy.sol:WhitelistCostPolicy",
        "label": "perUserFee",
        "offset": 0,
        "slot": "3",
        "type": "t_uint256"
      },
      {
        "astId": 2897,
        "contract": "src/WhitelistCostPolicy.sol:WhitelistCostPolicy",
        "label": "maxFreeUserCount",
        "offset": 0,
        "slot": "4",
        "type": "t_uint256"
      },
      {
        "astId": 2901,
        "contract": "src/WhitelistCostPolicy.sol:WhitelistCostPolicy",
        "label": "whitelist",
        "offset": 0,
        "slot": "5",
        "type": "t_mapping(t_address,t_bool)"
      }
    ],
    "types": {
      "t_address": {
        "encoding": "inplace",
        "label": "address",
        "numberOfBytes": "20"
      },
      "t_bool": {
        "encoding": "inplace",
        "label": "bool",
        "numberOfBytes": "1"
      },
      "t_mapping(t_address,t_bool)": {
        "encoding": "mapping",
        "key": "t_address",
        "label": "mapping(address => bool)",
        "numberOfBytes": "32",
        "value": "t_bool"
      },
      "t_uint256": {
        "encoding": "inplace",
        "label": "uint256",
        "numberOfBytes": "32"
      }
    }
  }
}