{
  "address": "0x347D7fC3A0F1355672b003e92C7077e1FF1D3067",
  "abi": [
    {
      "inputs": [
        {
          "internalType": "address",
          "name": "initialOwner",
          "type": "address"
        },
        {
          "internalType": "uint256",
          "name": "_oneTimeFee",
          "type": "uint256"
        },
        {
          "internalType": "uint256",
          "name": "_perUserFee",
          "type": "uint256"
        }
      ],
      "stateMutability": "nonpayable",
      "type": "constructor"
    },
    {
      "inputs": [
        {
          "internalType": "address",
          "name": "owner",
          "type": "address"
        }
      ],
      "name": "OwnableInvalidOwner",
      "type": "error"
    },
    {
      "inputs": [
        {
          "internalType": "address",
          "name": "account",
          "type": "address"
        }
      ],
      "name": "OwnableUnauthorizedAccount",
      "type": "error"
    },
    {
      "anonymous": false,
      "inputs": [
        {
          "indexed": false,
          "internalType": "uint256",
          "name": "_oneTimeFee",
          "type": "uint256"
        }
      ],
      "name": "OneTimeFeeUpdated",
      "type": "event"
    },
    {
      "anonymous": false,
      "inputs": [
        {
          "indexed": true,
          "internalType": "address",
          "name": "previousOwner",
          "type": "address"
        },
        {
          "indexed": true,
          "internalType": "address",
          "name": "newOwner",
          "type": "address"
        }
      ],
      "name": "OwnershipTransferStarted",
      "type": "event"
    },
    {
      "anonymous": false,
      "inputs": [
        {
          "indexed": true,
          "internalType": "address",
          "name": "previousOwner",
          "type": "address"
        },
        {
          "indexed": true,
          "internalType": "address",
          "name": "newOwner",
          "type": "address"
        }
      ],
      "name": "OwnershipTransferred",
      "type": "event"
    },
    {
      "anonymous": false,
      "inputs": [
        {
          "indexed": false,
          "internalType": "uint256",
          "name": "_perUserFee",
          "type": "uint256"
        }
      ],
      "name": "PerUserFeeUpdated",
      "type": "event"
    },
    {
      "inputs": [],
      "name": "acceptOwnership",
      "outputs": [],
      "stateMutability": "nonpayable",
      "type": "function"
    },
    {
      "inputs": [
        {
          "internalType": "address",
          "name": "sender",
          "type": "address"
        },
        {
          "internalType": "uint256",
          "name": "userCount",
          "type": "uint256"
        },
        {
          "internalType": "uint256",
          "name": "totalAmount",
          "type": "uint256"
        },
        {
          "internalType": "uint256",
          "name": "typeId",
          "type": "uint256"
        }
      ],
      "name": "calculateCost",
      "outputs": [
        {
          "internalType": "uint256",
          "name": "cost",
          "type": "uint256"
        }
      ],
      "stateMutability": "view",
      "type": "function"
    },
    {
      "inputs": [],
      "name": "oneTimeFee",
      "outputs": [
        {
          "internalType": "uint256",
          "name": "",
          "type": "uint256"
        }
      ],
      "stateMutability": "view",
      "type": "function"
    },
    {
      "inputs": [],
      "name": "owner",
      "outputs": [
        {
          "internalType": "address",
          "name": "",
          "type": "address"
        }
      ],
      "stateMutability": "view",
      "type": "function"
    },
    {
      "inputs": [],
      "name": "pendingOwner",
      "outputs": [
        {
          "internalType": "address",
          "name": "",
          "type": "address"
        }
      ],
      "stateMutability": "view",
      "type": "function"
    },
    {
      "inputs": [],
      "name": "perUserFee",
      "outputs": [
        {
          "internalType": "uint256",
          "name": "",
          "type": "uint256"
        }
      ],
      "stateMutability": "view",
      "type": "function"
    },
    {
      "inputs": [],
      "name": "renounceOwnership",
      "outputs": [],
      "stateMutability": "nonpayable",
      "type": "function"
    },
    {
      "inputs": [
        {
          "internalType": "uint256",
          "name": "_oneTimeFee",
          "type": "uint256"
        }
      ],
      "name": "setOneTimeFee",
      "outputs": [],
      "stateMutability": "nonpayable",
      "type": "function"
    },
    {
      "inputs": [
        {
          "internalType": "uint256",
          "name": "_perUserFee",
          "type": "uint256"
        }
      ],
      "name": "setPerUserFee",
      "outputs": [],
      "stateMutability": "nonpayable",
      "type": "function"
    },
    {
      "inputs": [
        {
          "internalType": "address",
          "name": "newOwner",
          "type": "address"
        }
      ],
      "name": "transferOwnership",
      "outputs": [],
      "stateMutability": "nonpayable",
      "type": "function"
    }
  ],
  "transactionHash": "0x35c0902aaf2800f0a8c4421b688783ebb731099d578005f3e007ce729e91bf4a",
  "args": [
    "0xCf638706ce117C3DBcAd607a133449551965F162",
    0,
    0
  ],
  "numDeployments": 1,
  "solcInputHash": "5f71aed193fc38fb6ae44917f433143c",
  "bytecode": "0x608060405234801561001057600080fd5b5060405161073e38038061073e83398101604081905261002f916100e3565b826001600160a01b03811661005e57604051631e4fbdf760e01b81526000600482015260240160405180910390fd5b61006781610077565b5060029190915560035550610126565b600180546001600160a01b031916905561009081610093565b50565b600080546001600160a01b038381166001600160a01b0319831681178455604051919092169283917f8be0079c531659141344cd1fd0a4f28419497f9722a3daafe3b4186f6b6457e09190a35050565b6000806000606084860312156100f857600080fd5b83516001600160a01b038116811461010f57600080fd5b602085015160409095015190969495509392505050565b610609806101356000396000f3fe608060405234801561001057600080fd5b50600436106100be5760003560e01c80638da5cb5b11610076578063e30c39781161005b578063e30c397814610169578063f2fde38b14610187578063f8245bca1461019a57600080fd5b80638da5cb5b14610117578063e1ba24261461015657600080fd5b8063715018a6116100a7578063715018a6146100f2578063748ddfc0146100fc57806379ba50971461010f57600080fd5b80631c3004f9146100c35780635288d945146100df575b600080fd5b6100cc60035481565b6040519081526020015b60405180910390f35b6100cc6100ed36600461051b565b6101a3565b6100fa610242565b005b6100fa61010a366004610554565b610256565b6100fa61029a565b60005473ffffffffffffffffffffffffffffffffffffffff165b60405173ffffffffffffffffffffffffffffffffffffffff90911681526020016100d6565b6100fa610164366004610554565b610311565b60015473ffffffffffffffffffffffffffffffffffffffff16610131565b6100fa61019536600461056d565b61034e565b6100cc60025481565b6000816000036101b6575060025461023a565b816001036101d357836003546101cc919061058f565b905061023a565b6040517f08c379a000000000000000000000000000000000000000000000000000000000815260206004820152600e60248201527f496e76616c69642074797065496400000000000000000000000000000000000060448201526064015b60405180910390fd5b949350505050565b61024a6103fe565b6102546000610451565b565b61025e6103fe565b60038190556040518181527fe4e9d0c42d8ff6bd519be0e8fd05d3d4748e8652fe9de147829fcf629ecb036e906020015b60405180910390a150565b600154339073ffffffffffffffffffffffffffffffffffffffff168114610305576040517f118cdaa700000000000000000000000000000000000000000000000000000000815273ffffffffffffffffffffffffffffffffffffffff82166004820152602401610231565b61030e81610451565b50565b6103196103fe565b60028190556040518181527f65e483827ee434bd81785823d46bdf2d3ce181aa289de8108eeeee22b207f50f9060200161028f565b6103566103fe565b6001805473ffffffffffffffffffffffffffffffffffffffff83167fffffffffffffffffffffffff000000000000000000000000000000000000000090911681179091556103b960005473ffffffffffffffffffffffffffffffffffffffff1690565b73ffffffffffffffffffffffffffffffffffffffff167f38d16b8cac22d99fc7c124b9cd0de2d3fa1faef420bfe791d8c362d765e2270060405160405180910390a350565b60005473ffffffffffffffffffffffffffffffffffffffff163314610254576040517f118cdaa7000000000000000000000000000000000000000000000000000000008152336004820152602401610231565b600180547fffffffffffffffffffffffff000000000000000000000000000000000000000016905561030e816000805473ffffffffffffffffffffffffffffffffffffffff8381167fffffffffffffffffffffffff0000000000000000000000000000000000000000831681178455604051919092169283917f8be0079c531659141344cd1fd0a4f28419497f9722a3daafe3b4186f6b6457e09190a35050565b803573ffffffffffffffffffffffffffffffffffffffff8116811461051657600080fd5b919050565b6000806000806080858703121561053157600080fd5b61053a856104f2565b966020860135965060408601359560600135945092505050565b60006020828403121561056657600080fd5b5035919050565b60006020828403121561057f57600080fd5b610588826104f2565b9392505050565b80820281158282048414176105cd577f4e487b7100000000000000000000000000000000000000000000000000000000600052601160045260246000fd5b9291505056fea2646970667358221220c01639e3896bf98272bb7f4b45d1cb28b06cc1653566bb8416ecb08acddd6a4c64736f6c63430008170033",
  "devdoc": {
    "errors": {
      "OwnableInvalidOwner(address)": [
        {
          "details": "The owner is not a valid owner account. (eg. `address(0)`)"
        }
      ],
      "OwnableUnauthorizedAccount(address)": [
        {
          "details": "The caller account is not authorized to perform an operation."
        }
      ]
    },
    "kind": "dev",
    "methods": {
      "acceptOwnership()": {
        "details": "The new owner accepts the ownership transfer."
      },
      "owner()": {
        "details": "Returns the address of the current owner."
      },
      "pendingOwner()": {
        "details": "Returns the address of the pending owner."
      },
      "renounceOwnership()": {
        "details": "Leaves the contract without owner. It will not be possible to call `onlyOwner` functions. Can only be called by the current owner. NOTE: Renouncing ownership will leave the contract without an owner, thereby disabling any functionality that is only available to the owner."
      },
      "transferOwnership(address)": {
        "details": "Starts the ownership transfer of the contract to a new account. Replaces the pending transfer if there is one. Can only be called by the current owner."
      }
    },
    "version": 1
  },
  "userdoc": {
    "kind": "user",
    "methods": {},
    "version": 1
  },
  "storageLayout": {
    "storage": [
      {
        "astId": 968,
        "contract": "src/BasicCostPolicy.sol:BasicCostPolicy",
        "label": "_owner",
        "offset": 0,
        "slot": "0",
        "type": "t_address"
      },
      {
        "astId": 1116,
        "contract": "src/BasicCostPolicy.sol:BasicCostPolicy",
        "label": "_pendingOwner",
        "offset": 0,
        "slot": "1",
        "type": "t_address"
      },
      {
        "astId": 3009,
        "contract": "src/BasicCostPolicy.sol:BasicCostPolicy",
        "label": "oneTimeFee",
        "offset": 0,
        "slot": "2",
        "type": "t_uint256"
      },
      {
        "astId": 3011,
        "contract": "src/BasicCostPolicy.sol:BasicCostPolicy",
        "label": "perUserFee",
        "offset": 0,
        "slot": "3",
        "type": "t_uint256"
      }
    ],
    "types": {
      "t_address": {
        "encoding": "inplace",
        "label": "address",
        "numberOfBytes": "20"
      },
      "t_uint256": {
        "encoding": "inplace",
        "label": "uint256",
        "numberOfBytes": "32"
      }
    }
  }
}